:100000000C9447050C946F050C946F050C946F05C8
:100010000C946F050C946F050C946F050C946F0590
:100020000C946F050C946F050C946F050C946F0580
:100030000C946F050C946F050C946F050C946F0570
:100040000C943F160C946F050C94290C0C94030C23
:100050000C946F050C946F050C946F050C946F0550
:100060000C945B0C0C946F05000000002500280028
:100070002B000000000023002600290004040404D3
:100080000404040402020202020203030303030342
:10009000010204081020408001020408102001021F
:1000A00004081020000000080002010000030407FB
:1000B0000000000000000000000103070F1F3F7F49
:1000C0000080C0E0F0F8FCFE00000000003E5B4F46
:1000D0005B3E3E6B4F6B3E1C3E7C3E1C183C7E3CA8
:1000E000181C577D571C1C5E7F5E1C00183C1800B6
:1000F000FFE7C3E7FF0018241800FFE7DBE7FF3046
:10010000483A060E2629792926407F050507407FB3
:1001100005253F5A3CE73C5A7F3E1C1C08081C1C26
:100120003E7F14227F22145F5F005F5F06097F011C
:100130007F006689956A606060606094A2FFA29407
:1001400008047E040810207E201008082A1C0808D5
:100150001C2A08081E101010100C1E0C1E0C303823
:100160003E3830060E3E0E06000000000000005F24
:1001700000000007000700147F147F14242A7F2A40
:100180001223130864623649562050000807030002
:10019000001C2241000041221C002A1C7F1C2A084E
:1001A000083E0808008070300008080808080000B1
:1001B00060600020100804023E5149453E00427F25
:1001C000400072494949462141494D331814127F74
:1001D0001027454545393C4A494931412111090714
:1001E0003649494936464949291E00001400000095
:1001F0004034000000081422411414141414004167
:1002000022140802015909063E415D594E7C121123
:10021000127C7F494949363E414141227F4141415B
:100220003E7F494949417F090909013E41415173D6
:100230007F0808087F00417F41002040413F017F47
:10024000081422417F404040407F021C027F7F040F
:1002500008107F3E4141413E7F090909063E415158
:10026000215E7F09192946264949493203017F0148
:10027000033F4040403F1F2040201F3F4038403F49
:10028000631408146303047804036159494D43005F
:100290007F4141410204081020004141417F040296
:1002A000010204404040404000030708002054542D
:1002B00078407F284444383844444428384444280B
:1002C0007F385454541800087E090218A4A49C785E
:1002D0007F0804047800447D40002040403D007FBA
:1002E0001028440000417F40007C047804787C089A
:1002F0000404783844444438FC182424181824246E
:1003000018FC7C08040408485454542404043F4452
:10031000243C4040207C1C2040201C3C4030403C81
:1003200044281028444C9090907C4464544C4400E1
:100330000836410000007700000041360800020145
:100340000204023C2623263C1EA1A161123A404031
:10035000207A3854545559215555794122545478AE
:1003600042215554784020545579400C1E52721247
:1003700039555555593954545459395554545800D0
:1003800000457C410002457D420001457C407D12D4
:1003900011127DF0282528F07C5455450020545436
:1003A0007C547C0A097F4932494949323A444444E1
:1003B0003A324A4848303A4141217A3A424020781C
:1003C000009DA0A07D3D4242423D3D4040403D3C1D
:1003D00024FF2424487E4943662B2FFC2F2BFF0942
:1003E00029F620C0887E0903205454794100004436
:1003F0007D413048484A32384040227A007A0A0A21
:10040000727D0D19317D2629292F28262929292693
:1004100030484D4020380808080808080808382FD8
:1004200010C8ACBA2F102834FA00007B0000081462
:100430002A142222142A14085500550055AA55AA38
:1004400055AAFF55FF55FF000000FF00101010FFD8
:1004500000141414FF001010FF00FF1010F010F033
:10046000141414FC001414F700FF0000FF00FF1424
:1004700014F404FC141417101F10101F101F141470
:10048000141F00101010F0000000001F10101010BA
:100490001F10101010F010000000FF1010101010AE
:1004A00010101010FF10000000FF140000FF00FFEC
:1004B00000001F10170000FC04F414141710171488
:1004C00014F404F40000FF00F714141414141414AA
:1004D000F700F7141414171410101F101F1414141D
:1004E000F4141010F010F000001F101F0000001F87
:1004F00014000000FC140000F010F01010FF10FFBA
:10050000141414FF141010101F00000000F010FF4E
:10051000FFFFFFFFF0F0F0F0F0FFFFFF0000000032
:1005200000FFFF0F0F0F0F0F3844443844FC4A4AB6
:100530004A347E02020606027E027E02635549416B
:10054000633844443C04407E201E2006027E0202A2
:1005500099A5E7A5991C2A492A1C4C7201724C30B6
:100560004A4D4D303048784830BC625A463D3E498D
:100570004949007E0101017E2A2A2A2A2A44445F31
:10058000444440514A444040444A51400000FF0125
:1005900003E080FF000008086B6B08361236243633
:1005A000060F090F06000018180000001010003098
:1005B00040FF0101001F01011E00191D1712003C20
:1005C0003C3C3C00000000002200FF2100DB40A476
:1005D000A62EAF2000A1C8D300408DAED580A800C4
:1005E00000600000000000000000000000000000AB
:1005F000E00000000000000000000000000001E03A
:100600000000000000000000000000000001F000F9
:1006100000000000000000000000000003F00000E7
:10062000000000000000000000000007F0000000D3
:100630000000000000000000000007F800000000BB
:100640000000000000000000000FF800000003C0E0
:10065000007E000001E0007F0FF800000003C000F2
:10066000FE000001E000FFEFF800000003C000FE04
:10067000000001E000FFFFF800000003C000F000F0
:1006800000000F007FFE7FC0000003C000F00000EC
:10069000000F003FFE7FF83FF1FBCFFCFEF3BC3DB7
:1006A000EFE01FFE7FFF7FFBFFDFFEFEFFBC3DEFA5
:1006B000E01FC6FFFF7FFBFFDFFEFEFFBC3DEFE05C
:1006C0000FE3C7FE787BC3DE1EF0FFBC3DEF0007E3
:1006D000FF87FC787BC3DE1EF0F83C3DEF0001FF96
:1006E000FFF0007BC3C01EF0F03C3DEF0001F37F44
:1006F000E03FFBC3CFFEF0F03C3DEF0003E33F8063
:100700007FFBC3DFFEF0F03C3DEF0007E73C0078E5
:100710007BC3DE1EF0F03C3DEF0007FFBE00787BA0
:10072000C3DE1EF0F03C3DEF0007FFFE00787BC308
:10073000DE1EF0F03C3DEF000FFFFE007FFBFFDF11
:10074000FEF0F03FFDEFE00FFFFF007FFBFFDFFE5D
:10075000F0F03FFDEFE00FF9FF003E79F9CF9EF09A
:10076000F01F3DE7E01FF1FF000000000000000067
:10077000000000001F80FF007FFFFFFFFFFFFFFF63
:10078000FFFFE01C007F007FFFFFFFFEB46D888D40
:1007900018E000001F007FFFFFFFFE95AD7DB577DD
:1007A000E000000F007FFFFFFFFEA5AD9D8D19E06B
:1007B000000006007FFFFFFFFEB5ADEDB57EE00057
:1007C00000000000018000000000000000000003A5
:1007D0008000000000000000000007C000000000D2
:1007E000000000000007C000000000000000000042
:1007F0000FC00000000000000000001FE00000002B
:100800000000000000001FE00000000000000000E9
:10081000003FE00000000000000000003FF000008A
:10082000000000000000007FF00000000000000059
:100830001FF87FF0000000000000003FFE7FF00086
:100840000000000000003FFF7FF0000000000000FB
:10085000001FFFFBE0000000000000000FFFF9FF99
:10086000C00000000000000FFFF9FFF800000000CA
:10087000000007FFF1FFFF00000000000003FC7311
:10088000FFFF80000000000001FE3FFFFF8000002E
:1008900000000000FF1E0FFF000000000000007FAE
:1008A000FE1FFC000000000000003FFFFFF80000FA
:1008B00000000000000FDFFFE0000000000000006B
:1008C0001F19FFC0000000000000003F3CFF0000B7
:1008D0000000000000007E7CF80000000000000026
:1008E000007FFE7C0000000000000000FFFFFC0015
:1008F00000000000000000FFFFFE000000000000FC
:100900000000FFFFFE0000000000000001FFEFFEFE
:100910000000000000000001FFCFFE00000000000A
:10092000000003FF07FE0000000000000003FC07BA
:10093000FE0000000000000003F003FE00000000C5
:10094000000000018000FE00000000000000000028
:10095000007E000000000000000000003E000000DB
:10096000000000000000000C0000000000000780F4
:1009700000FC000003C0000000078001FC00000331
:10098000C0000000078001FC000003C00000000759
:100990008001E00000001E000000078001E0000070
:1009A000001E007FE3F79FF9FDE7787BDFC0FFF7CC
:1009B000FFBFFDFDFF787BDFC0FFF7FFBFFDFDFF41
:1009C000787BDFC0F0F787BC3DE1FF787BDE00F08D
:1009D000F787BC3DE1F0787BDE0000F787803DE1E2
:1009E000E0787BDE007FF7879FFDE1E0787BDE002B
:1009F000FFF787BFFDE1E0787BDE00F0F787BC3DC5
:100A0000E1E0787BDE00F0F787BC3DE1E0787BDE5B
:100A100000F0F787BC3DE1E0787BDE00FFF7FFBF29
:100A2000FDE1E07FFBDFC0FFF7FFBFFDE1E07FFB03
:100A3000DFC07CF3F39F3DE1E03E7BCFC0000000D0
:100A40000000000000000000FFFFFFFFFFFFFFFFAE
:100A5000FFFFC0FFFFFFFFFD68DB111A31C0FFFF82
:100A6000FFFFFD2B5AFB6AEFC0FFFFFFFFFD4B5B53
:100A70003B1A33C0FFFFFFFFFD6B5BDB6AFDC0006D
:100A8000000000240027002A00009816891611246F
:100A90001FBECFEFD8E0DEBFCDBF11E0A0E0B1E0D8
:100AA000E2EDFAE302C005900D92A639B107D9F73D
:100AB00023E0A6E9B1E001C01D92A03BB207E1F737
:100AC00015E0C6E4D5E004C02197FE010E94291C70
:100AD000C534D107C9F70E94AD170C945C1D0C9466
:100AE0000000CF92DF92EF92FF920F931F93CF936C
:100AF000DF936C017A018B01C0E0D0E0CE15DF05F9
:100B000081F0D8016D918D01D601ED91FC9101909C
:100B1000F081E02DC6010995892B11F02196EECFC9
:100B20007E01C701DF91CF911F910F91FF90EF9050
:100B3000DF90CF900895FC01538D448D252F30E038
:100B4000842F90E0821B930B541710F0CF960895DA
:100B500001970895FC01918D828D981761F0828D27
:100B6000DF01A80FB11D5D968C91928D9F5F9F73E1
:100B7000928F90E008958FEF9FEF0895FC01918D83
:100B8000828D981731F0828DE80FF11D858D90E0F0
:100B900008958FEF9FEF0895FC01918D228D892F8D
:100BA00090E0805C9F4F821B91098F739927089575
:100BB00088E492E00E94CC0521E0892B09F420E032
:100BC000822F0895FC01848DDF01A80FB11DA35A67
:100BD000BF4F2C91848D90E001968F739927848F5D
:100BE000A689B7892C93A089B1898C918370806480
:100BF0008C93938D848D981306C00288F389E02D21
:100C000080818F7D80830895EF92FF920F931F93D1
:100C1000CF93DF93EC0181E0888F9B8D8C8D9813AF
:100C200005C0E889F989808185FD26C0F62E0B8DE7
:100C300010E00F5F1F4F0F731127E02E8C8DE8120D
:100C40000CC00FB607FCFACFE889F989808185FFCF
:100C5000F5CFCE010E94E205F1CF8B8DFE01E80FAA
:100C6000F11DE35AFF4FF0829FB7F8940B8FEA898A
:100C7000FB89808180620AC09FB7F894EE89FF8962
:100C80006083E889F98980818370806480839FBF55
:100C900081E090E0DF91CF911F910F91FF90EF9055
:100CA0000895CF93DF93EC01888D8823C9F0EA89FA
:100CB000FB89808185FD05C0A889B9898C9186FD55
:100CC0000FC00FB607FCF5CF808185FFF2CFA88952
:100CD000B9898C9185FFEDCFCE010E94E205E7CF67
:100CE000DF91CF91089580E090E0892B29F00E9458
:100CF000D80581110C940000089585ED8093BC0007
:100D00008091BC0084FDFCCF109223020895409195
:100D1000D601262F30E0240F311D21323105DCF4BD
:100D2000209123022430C9F4FC0180E090E0861772
:100D300058F43091D6012191DC01AA54BE4FA30F83
:100D4000B11D2C930196F3CF8091D601680F60936B
:100D5000D60180E0089581E0089582E00895089525
:100D600008950895E091A5038091A403E81730F455
:100D7000F0E0EA56FE4F808190E008958FEF9FEFFC
:100D800008959091A5038091A403981750F4E92F3A
:100D9000F0E0EA56FE4F208130E09F5F9093A5037C
:100DA00002C02FEF3FEFC90108958091A40390E0A6
:100DB0002091A503821B91090895CF92DF92EF92B3
:100DC000FF920F931F93CF93DF937C01CB018A0196
:100DD00020912402222389F0EB016B01C40ED51E61
:100DE000CC15DD0569F06991D701ED91FC91019079
:100DF000F081E02DC7010995F3CF642F0E9487068B
:100E0000C801DF91CF911F910F91FF90EF90DF907C
:100E1000CF900895CF93DF931F92CDB7DEB769834C
:100E2000209124022223D1F020914702203240F069
:100E300021E030E0FC013383228380E090E015C0A4
:100E400080912502E82FF0E0EA5DFD4F99819083C3
:100E50008F5F809325028093470205C061E0CE0139
:100E600001960E94870681E090E00F90DF91CF917C
:100E70000895FC0177FDB9C08085918568177907D1
:100E80000CF0B3C057FDB1C0828593854817590750
:100E90000CF008958689823079F484819581DC0193
:100EA000A61BB70BBD016150710986819781DC01DA
:100EB000A41BB50BAD010EC0833009F084C06427BC
:100EC0007527CA0186279727682779274681578182
:100ED000481B590B415051092130310531F048F17F
:100EE0002230310509F44AC00895CA0157FD07961A
:100EF0009C01A3E035952795AA95E1F7A481B581DA
:100F00002A9FC0012B9F900D3A9F900D1124680FCE
:100F1000791F078CF0A1E02DE60FF71F47705527CA
:100F200081E090E001C0880F4A95EAF79081892B13
:100F300048C0CA0157FD07969C0193E03595279557
:100F40009A95E1F7A481B5812A9FC0012B9F900D4E
:100F50003A9F900D1124680F791F078CF0A1E02DA6
:100F6000E60FF71F4770552781E090E001C0880F1A
:100F70004A95EAF780959081892323C0CA0157FDDD
:100F800007969C0183E0359527958A95E1F7A48122
:100F9000B5812A9FC0012B9F900D3A9F900D11247F
:100FA000680F791F078CF0A1E02DE60FF71F47703F
:100FB000552781E090E001C0880F4A95EAF79081BB
:100FC000892780830895813009F086CF64277527AB
:100FD000462757276427752784819581DC01A61B46
:100FE000B70BBD016150710977CF08950895FC01D9
:100FF0006370668B8481958126813781613039F0F9
:10100000633029F09187808733872287089531875D
:1010100020879387828708956F927F928F929F9205
:10102000AF92BF92CF92DF92EF92FF920F931F93F6
:10103000CF93DF93EC014B015A0169013801E8813C
:10104000F9810284F385E02D0995E881F981028810
:10105000F389E02D87019601A501B401CE01099520
:10106000A501460D571D41505109E881F9810288BB
:10107000F389E02D9601B401CE010995E881F9814B
:101080000088F189E02D9301A501B401CE010995F5
:10109000C80CD91CB60161507109E881F98100883A
:1010A000F189E02D9301A501CE010995E881F9812F
:1010B0000688F789E02DCE01DF91CF911F910F9126
:1010C000FF90EF90DF90CF90BF90AF909F908F9068
:1010D0007F906F9009948F929F92AF92BF92CF9220
:1010E000DF92EF92FF920F931F93CF93DF934C0108
:1010F0006B015A01E901DC01ED91FC916217730764
:1011000081F40417150724F48B2D5801042F182F90
:101110000A191B0998012F5F3F4F048CF58DE02DB4
:1011200012C04017510709F52617370724F48D2DF3
:101130006901C62FD82F9E012C193D092F5F3F4F03
:10114000068CF78DE02D8701A501B601C401099534
:10115000DF91CF911F910F91FF90EF90DF90CF9093
:10116000BF90AF909F908F9008950284F385E02DFB
:101170000995D401ED91FC910488F589E02D9E013B
:10118000A501B601C4010995D401ED91FC91068831
:10119000F789E02DC401DF91CF911F910F91FF904E
:1011A000EF90DF90CF90BF90AF909F908F90099479
:1011B000EF92FF920F931F93DC011A960D911C91F1
:1011C0001B9718962D913C911997ED91FC9100A0D9
:1011D000F1A1E02D7B0140E050E060E070E0099576
:1011E0001F910F91FF90EF9008954F925F926F9231
:1011F0007F928F929F92AF92BF92CF92DF92EF92A7
:10120000FF920F931F93CF93DF936C012B015A0131
:1012100039014801DC01ED91FC910284F385E02D58
:101220000995E201640C751CD601ED91FC91C6157F
:10123000D7055CF40088F189E02D87019401A501B0
:10124000BE01C60109952196EFCF0688F789E02DEA
:10125000C601DF91CF911F910F91FF90EF90DF902A
:10126000CF90BF90AF909F908F907F906F905F9046
:101270004F9009948F929F92AF92BF92CF92DF923C
:10128000EF92FF920F931F93CF93DF93EC015B01DB
:101290004A016901E881F9810284F385E02D09950D
:1012A00095012C0D3D1D21503109E881F9810488FB
:1012B000F589E02D78018401A401B501CE010995DD
:1012C000E881F9810688F789E02DCE01DF91CF9181
:1012D0001F910F91FF90EF90DF90CF90BF90AF9054
:1012E0009F908F9009948F929F92AF92BF92CF92CE
:1012F000DF92EF92FF920F931F93CF93DF93EC0156
:101300005B014A0169017801E881F9810284F38572
:10131000E02D0995C80CD91C860101501109E881FE
:10132000F9810488F589E02D9501A401B501CE016C
:101330000995E881F9810688F789E02DCE01DF91D2
:10134000CF911F910F91FF90EF90DF90CF90BF90C2
:10135000AF909F908F900994EF92FF920F931F93FD
:10136000DC01ED91FC9100A0F1A1E02D09951F9108
:101370000F91FF90EF9008950F931F93DC01ED9173
:10138000FC91068CF78DE02D09951F910F91089522
:101390000F931F93DC01ED91FC91048CF58DE02DF2
:1013A00009951F910F910895DC01ED91FC91008446
:1013B000F185E02D09942F923F924F925F926F92A8
:1013C0007F928F929F92AF92BF92CF92DF92EF92D5
:1013D000FF920F931F93CF93DF9300D000D000D0E4
:1013E000CDB7DEB72C017E836D836A015901C80138
:1013F000FC82EB824801841A950A97FE03C09194FF
:101400008194910835012D813E81621A730A77FE1D
:1014100003C0719461947108681479045CF43A2DE6
:101420002B2D5C01832F922F3D812E81DE82CD8278
:10143000C32ED22EAD81BE81AA16BB065CF43C2D14
:101440002D2D6C01832F922F3D812E81BE82AD8286
:10145000A32EB22E85012D813E81021B130B1C0190
:101460002C183D0837FE03C03194219431087801CF
:1014700017FF03C03FEFE31AF30AF594E794C81689
:10148000D9062CF08FEF9FEF9A83898304C0A1E0E7
:10149000B0E0BA83A9832D813E81A216B30624F160
:1014A000D201ED91FC910484F585E02D2B813C81E6
:1014B0006814790424F44D815E81B60103C0A6014D
:1014C0006D817E81C2010995E218F308F7FE06C01E
:1014D00029813A81C20ED31EE00EF11E8D819E81BC
:1014E00001969E838D83D7CF26960FB6F894DEBFE4
:1014F0000FBECDBFDF91CF911F910F91FF90EF9065
:10150000DF90CF90BF90AF909F908F907F906F9023
:101510005F904F903F902F900895089580E090E065
:101520000895862F0C942115862F642F0C944A154C
:10153000862F642F0C9403160F931F93CF93DF9382
:10154000DC015696EC915697E23071F0E330E9F009
:10155000E13079F5FB0114960D90BC91A02DA41BF0
:10156000B50BA21BB30B18C0EC01EC81FD81E61B8F
:10157000F70BBF0161507109EE81FF81DF01A41BF0
:10158000B50BAD01421B530B14C0DA01EC01EE8127
:10159000FF81E61BF70B3197F7FD0DC0EC014E8183
:1015A0005F81E417F5073CF4AF01BD010E9405140B
:1015B00002C00E946C14DF91CF911F910F9108958A
:1015C0000F931F93DC015696EC915697E23061F031
:1015D000E33009F1E13081F51496ED91FC91159716
:1015E000E41BF50B319723C0DC011496ED91FC91BF
:1015F0001597DF01A61BB70BBD01DC011696ED9117
:10160000FC911797DF01A41BB50BAD0141505109A7
:10161000621B730B11C0FA01DC0116964D915C91AF
:101620001797DA01A61BB70BBD01621B730BAB0149
:10163000BF010E946C140CC057FD0AC0DC01169655
:10164000ED91FC9117974E175F0714F40E94051453
:101650001F910F9108958F929F92AF92CF92EF9228
:10166000FF920F931F93CF93DF93EC01262F898D69
:101670009A8D009709F042C06A3059F41D861C8685
:101680002D898E859F8538E0239F800D911D112423
:1016900043C06D3009F4AAC08F898823C9F03C8902
:1016A0008C859D8546E0349F800D911D11244885D1
:1016B00059854817590764F41D861C863D898E8517
:1016C0009F8548E0349F800D911D11249F878E8750
:1016D000EA88FB88088919894E855F856C857D8538
:1016E000AD88CC88CE010E94D1112C898C859D8536
:1016F00036E0239F800D911D11243EC06A3079F49D
:101700001D861C862D89FC013696E4918E859F8569
:101710002E9F800D911D11249F878E8767C06D308D
:1017200009F464C0FC0134963491631708F45EC078
:101730003196E491E61708F459C0462F431B342F25
:10174000FC0132968590949047E0349F800C911C68
:101750001124F401329634913196E491332311F03F
:10176000E1110DC0F4013496E4912C898C859D859E
:10177000E29F800D911D11249D878C8737C0F40155
:10178000359644915F89552319F15C89E32FF0E088
:10179000E40FF11D47FDFA955E9FB0015F9F700D4C
:1017A00011244C855D85460F571F68857985641720
:1017B000750774F41D861C863D89FC013696E491FC
:1017C0008E859F853E9F800D911D11249F878E875A
:1017D000EA88FB88088919894E855F856C857D8537
:1017E000AD88CC88CE010E94D111BCCF81E090E0C1
:1017F000DF91CF911F910F91FF90EF90CF90AF901D
:101800009F908F9008951F920F920FB60F92112400
:101810002F933F934F935F936F937F938F939F93F8
:10182000AF93BF93EF93FF9388E492E00E94E205A9
:10183000FF91EF91BF91AF919F918F917F916F91A8
:101840005F914F913F912F910F900FBE0F901F907E
:1018500018951F920F920FB60F9211242F938F930A
:101860009F93EF93FF93E0915802F091590280818A
:10187000E0915E02F0915F0282FD12C09081809142
:1018800061028F5F8F7320916202821751F0E091A5
:101890006102F0E0E85BFD4F958F8093610201C02B
:1018A0008081FF91EF919F918F912F910F900FBEAB
:1018B0000F901F9018951F920F920FB60F92112440
:1018C0002F933F934F935F936F937F938F939F9348
:1018D000AF93BF93EF93FF938091B900887F8036D9
:1018E00009F49CC068F5883209F45BC090F480313B
:1018F00009F454C038F4882309F4F6C0883009F498
:101900004DC0F6C0883109F44CC0803209F45DC086
:10191000EFC0803409F468C048F4803309F455C03E
:10192000883309F0E5C080932102D8C0803509F4DE
:101930004FC0883509F45DC0883409F0D9C0D6C0DD
:10194000883909F4C7C0A8F4883709F467C038F4A7
:10195000883609F463C0803709F460C0C9C088388C
:1019600009F4B8C0803909F45FC0803809F0C0C0FC
:101970005BC0803B09F486C038F4803A09F466C045
:10198000883A09F47FC0B4C0803C09F4A7C0883C01
:1019900009F4A4C0883B09F48AC0AAC08091FE0162
:1019A00010C09091200280911F02981770F5E0916D
:1019B000200281E08E0F80932002F0E0E150FE4F84
:1019C00080818093BB0085EC86C0809321028EC00D
:1019D000E091200281E08E0F809320028091BB0075
:1019E000F0E0E150FE4F80839091200280911F0231
:1019F0006EC0E091200281E08E0F809320028091E2
:101A0000BB00F0E0E150FE4F808380912202811103
:101A10006DC081E08093FD0184EA61C083E0809322
:101A200023021092F801CFCF8091F801803208F0A4
:101A300051C0E091F80181E08E0F8093F801809110
:101A4000BB00F0E0E852FE4F8083BDCF85EC809371
:101A5000BC00109223028091F801803230F4E091B2
:101A6000F801F0E0E852FE4F10826091F80170E05A
:101A7000E091A003F091A10388ED91E00995109207
:101A8000F80136C084E0809323021092D7011092AF
:101A9000D601E091A203F091A30309958091D601AC
:101AA000811105C081E08093D6011092B601E091CA
:101AB000D70181E08E0F8093D701F0E0EA54FE4F0A
:101AC00080818093BB009091D7018091D6019817B7
:101AD00008F479CF85E88093BC000AC085EC809338
:101AE000BC001092230204C0109221020E947D06C5
:101AF000FF91EF91BF91AF919F918F917F916F91E6
:101B00005F914F913F912F910F900FBE0F901F90BB
:101B1000189508958EBD00000DB407FEFDCF8EB55B
:101B200008951F93CF93DF93FC01858D968D0097C9
:101B300029F1162FEF0121A131E0309324022093E7
:101B400046021092250210924702DC01ED91FC91B1
:101B50000190F081E02D60E009958D8D9E8DDC0176
:101B6000ED91FC910190F081E02D612F09958D8D13
:101B70009E8DDF91CF911F910C94740EA5A5B6A5F3
:101B80009C9183A9809589238C93838D948D892B37
:101B900031F0862FDF91CF911F910C948A0D28E0B0
:101BA00030E080E8A1A5B2A591A9462F482319F0FD
:101BB0004C91942B03C04C91909594239C93A3A596
:101BC000B4A54C9192A9942B9C93A3A5B4A54C9138
:101BD00092A9909594239C9386952150310911F7F1
:101BE000DF91CF911F9108958CBD9DBD08951F93E6
:101BF000CF93DF93EC01162F8D8D9E8D892BB1F045
:101C00002DA93EA94FA958AD60E074E284EF90E0A1
:101C10000E94071CDA01C9014097A109B109B695D4
:101C2000A795979587958093B8000FC08B8D9C8D55
:101C3000892B21F08EAD9FAD0E94F40DEFA5F8A980
:101C400090818CA9809589238083111102C066EA56
:101C500001C067EACE010E94910D8D8D9E8D892B6A
:101C6000B1F029AD3AAD4BAD5CAD60E074E284EF0C
:101C700090E00E94071CDA01C9014097A109B1094F
:101C8000B695A795979587958093B80006C0EFA560
:101C9000F8A990818CA9892B8083DF91CF911F9126
:101CA000089596E0899FD0011124AB51BD4F9096C5
:101CB0007C936E935F9791E091969C93919790910E
:101CC0005103E0915203F0915303992339F0309777
:101CD00051F0811108C08091010304C0309719F0C0
:101CE0005C968C910994089530914702313208F046
:101CF0004BC0809123028111FCCF9091460222E0DB
:101D00002093230221E0209322022FEF209321022F
:101D10001092200230931F02E6E2F2E0AFEFB1E052
:101D200020E0321721F041914D932F5FFACF1092AE
:101D3000FE012091FE01990F922B9093FE0190914C
:101D4000FD01913061F41092FD019091FE0190939C
:101D5000BB009091BC0093FDF8CF95EC01C095EECF
:101D60009093BC00909123029230E1F39091210274
:101D70009F3F79F080912102803241F080912102D1
:101D8000803331F084E005C081E003C082E001C00F
:101D900083E01092250210924702109224020895C7
:101DA000DF92EF92FF920F931F93CF93DF93D82E82
:101DB000D92FC62F8091710390917203009709F477
:101DC00054C02091750331E03093240220934602E1
:101DD0001092250210924702DC01ED91FC910190D6
:101DE000F081E02D60E00995ED2CFD2E11E0D1E0B1
:101DF0008091710390917203CC2371F11032C8F07D
:101E00000E94740E80917503D09324028093460241
:101E100010922502109247028091710390917203F3
:101E2000DC01ED91FC910190F081E02D60E00995DD
:101E300011E08091710390917203F7016491DC01CC
:101E4000ED91FC910190F081E02D09951F5FC1504B
:101E5000BFEFEB1AFB0ACCCFDF91CF911F910F910F
:101E6000FF90EF90DF900C94740EE0918103F0915D
:101E700082039081809187038095892380830D2D33
:101E80001D2FCC2309F439C0F801849120916F03F0
:101E900030917003232B31F00E948A0DC1500F5FE7
:101EA0001F4FEFCF28E030E040E8E0917D03F09154
:101EB0007E0390918503582F542319F05081952B60
:101EC00003C05081909595239083E0917F03F0911A
:101ED0008003508190918603952B9083E0917F033E
:101EE000F091800350819091860390959523908383
:101EF000469521503109C9F6D1CFDF91CF911F917D
:101F00000F91FF90EF90DF900895EF92FF920F9363
:101F10001F93CF93DF938091710390917203892B6C
:101F2000D1F02091890330918A0340918B03509125
:101F30008C0360E074E284EF90E00E94071CDA01F9
:101F4000C9014097A109B109B695A79597958795BD
:101F50008093B80016C080916F0390917003892B15
:101F600031F080919203909193030E94F40DE091DF
:101F70008303F09184039081809188038095892365
:101F8000808365E088EC95E00E94D00E6091580354
:101F9000615084E593E00E94910D20915A033091A5
:101FA0005B03C901079697FD079633E095958795E2
:101FB0003A95E1F72091580330915903829F8001AF
:101FC000839F100D929F100D1124C0917303D09127
:101FD000740380917103909172030C0F1D1F009781
:101FE00009F44CC02091750331E030932402209312
:101FF00046021092250210924702DC01ED91FC91FD
:102000000190F081E02D60E40995FF24F394EE2423
:10201000E39480917103909172030C171D0759F19D
:10202000BFE1BF15D0F40E94740E80917503E09259
:10203000240280934602109225021092470280915A
:10204000710390917203DC01ED91FC910190F0819C
:10205000E02D60E40995FF24F39480917103909141
:1020600072036991DC01ED91FC910190F081E02D0A
:102070000995F394CECF0E94740E41C0E091810384
:10208000F0918203908180918703892B80830C17C4
:102090001D07A9F1899120916F0330917003232BC3
:1020A00019F00E948A0DF3CF28E030E040E8E0917B
:1020B0007D03F0917E0390918503582F542319F0EE
:1020C0005081952B03C05081909595239083E0918A
:1020D0007F03F0918003508190918603952B90832C
:1020E000E0917F03F0918003508190918603909559
:1020F00095239083469521503109C9F6C8CF809128
:10210000710390917203892BD1F020918D0330914E
:102110008E0340918F035091900360E074E284EF4E
:1021200090E00E94071CDA01C9014097A109B1099A
:10213000B695A795979587958093B80017C0E091BD
:102140008303F0918403908180918803892B80839D
:1021500080916F0390917003892B41F0DF91CF91B3
:102160001F910F91FF90EF900C94890DDF91CF910B
:102170001F910F91FF90EF90089520915A03309195
:102180005B03C901079697FD079623E09595879510
:102190002A95E1F72091580330915903829FA001BD
:1021A000839F500D929F500D112460E070E080914C
:1021B0007303909174030C94551D3F924F925F925C
:1021C0006F927F928F929F92AF92BF92CF92DF9247
:1021D000EF92FF920F931F93CF93DF9300D000D025
:1021E00000D0CDB7DEB72C013B014A015901C9012E
:1021F000079697FD07969C0193E0359527959A954C
:10220000E1F73C832B83C12CD12CE12CF12C312C18
:10221000C3018E0D9F1D9A838983E016F106C4F5D4
:102220001E821D822D813E812A153B054CF5C90178
:1022300087709927892B11F0330C0EC0ED81FE8138
:10224000F7FD379683E0F595E7958A95E1F7EC0D74
:10225000FD1DE80DF91D349037FE0CC021E030E083
:1022600049815A816D817E81640D751D84E593E0FD
:102270000E94D4098D819E8101969E838D83D2CF49
:102280009FEFE91AF90A2B813C81C20ED31EC0CF01
:1022900026960FB6F894DEBF0FBECDBFDF91CF916B
:1022A0001F910F91FF90EF90DF90CF90BF90AF9074
:1022B0009F908F907F906F905F904F903F90089588
:1022C000CF92DF92EF92FF920F931F9396E0899F38
:1022D000F0011124EB51FD4F11A2278D30A12130C7
:1022E000310539F158F02230310509F447C0233067
:1022F000310509F04FC060E070E044C0662309F486
:1023000049C061E070E00E94510E2FB7F8948091AF
:10231000F9019091FA01A091FB01B091FC012FBF4E
:1023200080933D0390933E03A0933F03B0934003FB
:1023300031C09FB7F894C090F901D090FA01E090B5
:10234000FB01F090FC019FBF00913D0310913E0303
:1023500020913F0330914003C01AD10AE20AF30AE8
:1023600000914F031091500320E030E00C151D0543
:102370002E053F0518F462E070E004C061110AC048
:1023800063E070E01F910F91FF90EF90DF90CF908E
:102390000C94510E1F910F91FF90EF90DF90CF9012
:1023A00008952F923F924F925F926F927F928F92F9
:1023B0009F92AF92BF92CF92DF92EF92FF920F93D4
:1023C0001F93CF93DF93CDB7DEB76B970FB6F8941B
:1023D000DEBF0FBECDBF9B8F8A8F1B014A01D22E5D
:1023E000198708873701A982DC0159962D913C9104
:1023F0005A972115310509F0FFC018968D919C91CF
:102400001997681779070CF0E7C11A968D919C917E
:102410001B97481759070CF0DFC1EC2DF0E0FB8348
:10242000EA839B0146E0C49E200D311D11243D87A7
:102430002C87121613060CF0CFC16A2D70E07B8733
:102440006A8783E0660F771F8A95E1F77F876E873B
:10245000CB01880D991D181619060CF0BDC15896B0
:102460008C91811104C08FEA8D1508F4D394AA8D44
:10247000BB8DED91FC9111970284F385E02DCD0188
:102480000995B5E0DB9EC0011124EC2DF0E0F98B3D
:10249000E88B91012B5F3F4F3B8B2A8B3D822C8237
:1024A0002101AC01421953095D8B4C8B7981672F57
:1024B00070E07F8B6E8BC4010896998F888FEC89B2
:1024C000FD89E40DF51DE853FF4FD49054019F8220
:1024D0008E82D0FE16C0AA8DBB8DED91FC91B1E02D
:1024E000CB1209C02981213031F40484F585E02D17
:1024F0002885398519C00684F785E02DE884F9849C
:102500001DC0488559854615570519F1AA8DBB8D03
:10251000ED91FC91B1E0CB120DC02981213051F435
:102520000484F585E02D9301A501B2018A8D9B8D70
:1025300009950FC00684F785E02D73010A851B8578
:102540002A813B814E815F816C817D818A8D9B8D4B
:102550000995D6943FEFA31AB30A4E815F816E8925
:102560007F89460F571F5F834E83888D998DA816EC
:10257000B90609F0AECF9FEF491A590AAC81BD8167
:10258000E889F989AE0FBF1FBD83AC832A893B89D7
:102590004216530609F093CF4885598546155705CD
:1025A00009F4F8C0AA8DBB8DED91FC91B1E0CB127E
:1025B00011C02981213071F4B1016B5F7F4F008818
:1025C000F189E02D830128E030E0A4018A8D9B8D04
:1025D0000995E0C06C857D854A815B81641B750B24
:1025E0000684F785E02D73010E851F859A01A401ED
:1025F0008A8D9B8D0995CEC0F9013496E491DE1A3F
:10260000F901329685919491B7E0DB9E800D911D82
:102610001124F901259134913B8B2A8BFC012591E2
:1026200034915901FC0132965490319634913C8793
:10263000329674903196149141E04C1518F05981FE
:10264000523068F0672D072C000C770B7D836C836C
:10265000812F012E000C990B9B838A8304C01B825F
:102660001A821D821C82AA8DBB8DED91FC9111975F
:102670000284F385E02DCD010995412CD12C612CEC
:10268000F981EF2FF0E0FF83EE832C2D30E03B87C4
:102690002A87A401410F511D17FD5A955F8B4E8B60
:1026A000B101670D711D77FC7A95798F688F7C85F4
:1026B000671608F06FC0262D30E04A815B81420F1B
:1026C000531FAE81BF81A49FC001A59F900DB49FF1
:1026D000900D1124F401E80FF91FF98BE88B842D7C
:1026E000712C4E895F89420F531F5D8B4C8B751483
:1026F00008F04DC051E0580F5E87877041F4C50166
:102700000196EA89FB89EA0DFB1DD4905C01D7FE96
:102710003AC061E0C61216C07981713099F4AA8D71
:10272000BB8DED91FC9111970484F585E02D2885F2
:1027300039854C895D89688D798D670D711DCD0155
:10274000099521C08C819D81870D911DEA85FB85AE
:102750008E9FB0018F9F700D9E9F700D1124620D92
:10276000731DAA8DBB8DED91FC9111970684F785A1
:10277000E02DE884F9840E811F812A853B854889F4
:102780005989CD010995DD0C73948E85B0CF450C28
:1027900063948DCFAA8DBB8DED91FC911197068826
:1027A000F789E02DCD016B960FB6F894DEBF0FBE12
:1027B000CDBFDF91CF911F910F91FF90EF90DF90F0
:1027C000CF90BF90AF909F908F907F906F905F90D1
:1027D0004F903F902F9009946B960FB6F894DEBF00
:1027E0000FBECDBFDF91CF911F910F91FF90EF9062
:1027F000DF90CF90BF90AF909F908F907F906F9021
:102800005F904F903F902F9008950F931F93CF9319
:10281000DF9377FF04C0260F371F60E070E0DC0114
:102820001496CD91DC911597FB01E20FF31FCE17A3
:10283000DF071CF49E01261B370B121613060CF043
:1028400046C0FA0157FD3796DF01E3E0B595A7953D
:10285000EA95E1F7AC9FF001AD9FF00DBC9FF00D44
:1028600011246E0F7F1FDC015F96ED91FC91909714
:10287000E60FF71F4770552781E090E001C0880FF1
:102880004A95EAF7482F0130110539F078F0023007
:102890001105E9F42E0F3F1F13C02E0F3F1FE21743
:1028A000F307A9F08081842B8193F9CF80952E0FB7
:1028B0003F1FE217F30759F0908198239193F9CFC6
:1028C000E217F30721F0808184278193F9CFDF910C
:1028D000CF911F910F910895EF92FF920F931F9345
:1028E000CF93DF93EC0177FDA5C0EC80FD806E15E2
:1028F0007F050CF09FC057FF04C0240F351F40E038
:1029000050E08E819F81FA01E20FF31F8E179F071F
:102910001CF49C01241B350B121613060CF08AC004
:10292000922F842F8695869586958E9DD0018F9DBA
:10293000B00D11246A0F7B1FAF8DB8A1A60FB71F72
:102940004770B1F188E0841B482F682F70E0FB01CD
:10295000E054FF4FE491281798F4621B71092FEFA0
:1029600030E002C0359527956A95E2F7E223013001
:10297000110549F078F00230110509F05BC00EC076
:102980000130110519F48C91E82B0AC001301105B2
:1029900008F049C0E0958C91E82302C08C91E827AB
:1029A000EC93941708F446C02C813D81A20FB31F0D
:1029B000E92FE41BE830F8F00230110561F48E2FA6
:1029C0009C9190959C932C813D81A20FB31F8850C0
:1029D0008830B0F70FC081E00115110509F480E0DF
:1029E00081959E2F8C932C813D81A20FB31F98500F
:1029F0009830C0F7E770EE23E9F0F0E0E854FF4FBD
:102A0000E4910130110539F048F00230110591F4DC
:102A10008C91E82706C08C91E82B03C0E0958C913F
:102A2000E823EC9307C00230110509F4B7CFAE0DCF
:102A3000BF1DBECFDF91CF911F910F91FF90EF90FF
:102A40000895CF93DF93282F30E0F901EC55FF4F25
:102A50008491F901E057FF4FD491F901E458FF4FF9
:102A6000C491CC2391F081110E94DA15EC2FF0E093
:102A7000EE0FFF1FEE58FF4FA591B491EC91ED239F
:102A800081E090E021F480E002C080E090E0DF91FE
:102A9000CF9108951F93CF93DF93282F30E0F90152
:102AA000EC55FF4F8491F901E057FF4FD491F901A4
:102AB000E458FF4FC491CC23C1F0162F81110E941E
:102AC000DA15EC2FF0E0EE0FFF1FE859FF4FA5914C
:102AD000B4919FB7F894111104C08C91D095D8236C
:102AE00002C0EC91DE2BDC939FBFDF91CF911F9151
:102AF00008953FB7F8948091A8039091A903A091FD
:102B0000AA03B091AB0326B5A89B05C02F3F19F0CF
:102B10000196A11DB11D3FBFBA2FA92F982F88275D
:102B2000820F911DA11DB11DBC01CD0142E0660FB8
:102B3000771F881F991F4A95D1F708958F929F920A
:102B4000AF92BF92CF92DF92EF92FF926B017C0126
:102B50000E9479154B015C01C114D104E104F10418
:102B6000F1F00E947915DC01CB0188199909AA09B5
:102B7000BB09883E9340A105B10570F321E0C21A5C
:102B8000D108E108F10888EE880E83E0981EA11CA8
:102B9000B11CC114D104E104F10419F7DDCFFF9099
:102BA000EF90DF90CF90BF90AF909F908F9008955F
:102BB0000E94501D833081F028F4813099F08230DA
:102BC000A1F008958730A9F08830B9F08430D1F4AD
:102BD000809180008F7D03C0809180008F778093EB
:102BE0008000089584B58F7702C084B58F7D84BD41
:102BF00008958091B0008F7703C08091B0008F7DE1
:102C00008093B0000895CF93DF9390E0FC01E057EC
:102C1000FF4F2491FC01E458FF4F8491882361F118
:102C200090E0880F991FFC01E158F54FC591D491B0
:102C3000FC01E859FF4FA591B491611109C09FB7FC
:102C4000F8948881209582238883EC912E230BC0F1
:102C5000623061F49FB7F8948881322F30958323D6
:102C60008883EC912E2B2C939FBF06C08FB7F894CE
:102C7000E8812E2B28838FBFDF91CF9108951F927B
:102C80000F920FB60F9211242F933F938F939F9320
:102C9000AF93BF938091F9019091FA01A091FB014C
:102CA000B091FC013091A70323E0230F2D3720F4CE
:102CB0000196A11DB11D05C026E8230F0296A11D96
:102CC000B11D2093A7038093F9019093FA01A0937B
:102CD000FB01B093FC018091A8039091A903A091FE
:102CE000AA03B091AB030196A11DB11D8093A80367
:102CF0009093A903A093AA03B093AB03BF91AF91A4
:102D00009F918F913F912F910F900FBE0F901F9029
:102D1000189580E591E0909355038093540380913A
:102D2000730390917403009711F00C94C71C0895DD
:102D300010924B0210924A0288EE93E0A0E0B0E0BD
:102D400080934C0290934D02A0934E02B0934F0299
:102D500022E231E0309349022093480225EC30E032
:102D6000309355022093540224EC30E03093570204
:102D70002093560220EC30E0309359022093580201
:102D800021EC30E030935B0220935A0222EC30E0D9
:102D900030935D0220935C0226EC30E030935F02BA
:102DA00020935E02109261021092620210926302FE
:102DB00010926402109297031092960380939803E6
:102DC00090939903A0939A03B0939B0384E391E0BB
:102DD0009093950380939403109257031092560397
:102DE00020E830E0309359032093580380E490E0CA
:102DF00090935B0380935A0330935D0320935C03AD
:102E000090935F0380935E0310926A0310926103B4
:102E100010926003109263031092620381E080932A
:102E20006903809368032FEF3FEF3093670320938C
:102E30006603309365032093640380936B031092C1
:102E40006C0310926E0310926D0380E591E09093F5
:102E50005503809354031092700310926F0384E91A
:102E600093E0909372038093710310927403109215
:102E700073038FEF809378038093790380937A03B1
:102E800080937B0380937C0380E89AE1A6E0B0E026
:102E90008093890390938A03A0938B03B0938C0350
:102EA00080EA96E8A1E0B0E080938D0390938E03D2
:102EB000A0938F03B093900380E5809392031092C8
:102EC00093031092E7021092EB021092EA02109222
:102ED000EC0286E491E09093E6028093E502E5EE51
:102EE000F2E081E293E0148E10A2178E11A23696C2
:102EF0008E179F07C1F784E091E090934803809379
:102F0000470380E091E090934A038093490384E073
:102F100080934B0380934C0388E091E090934603A9
:102F2000809345038AE090E090934E0380934D0395
:102F300084EF91E09093500380934F0310925303DA
:102F400010925203109241031092420310924303D5
:102F500010924403109251030895789484B58260CE
:102F600084BD84B5816084BD85B5826085BD85B52D
:102F7000816085BD80916E00816080936E001092AB
:102F80008100809181008260809381008091810026
:102F900081608093810080918000816080938000B7
:102FA0008091B10084608093B1008091B000816015
:102FB0008093B00080917A00846080937A00809141
:102FC0007A00826080937A0080917A008160809399
:102FD0007A0080917A00806880937A001092C10014
:102FE000E0915802F091590282E08083E09154020E
:102FF000F09155021082E0915602F09157028FEC49
:10300000808310926002E0915C02F0915D0286E0A4
:103010008083E0915A02F0915B028081806180831D
:10302000E0915A02F0915B02808188608083E09198
:103030005A02F0915B02808180688083E0915A029D
:10304000F0915B0280818F7D8083809173039091EA
:103050007403892B51F520915A0330915B03C90108
:10306000079697FD0796B3E095958795BA95E1F792
:103070002091580330915903AC01429FC001439FF6
:10308000900D529F900D11240E942F1C9093740359
:1030900080937303892B49F449E150E068E771E0BC
:1030A00088E492E00E947105FFCF0E94BD1020913C
:1030B0005A0330915B038091580390915903213258
:1030C0003105A4F0B9016054710977FF02C06F5F48
:1030D0007F4F759567958255910997FD019600E49C
:1030E00010E022E530E04FEB57E013C0B901605229
:1030F000710977FF02C06F5F7F4F759567958357A2
:10310000910997FD019600E210E023E730E04FEDD2
:1031100055E0959587950E94DD1082E080937603B7
:103120008091710390917203892BB9F18CE38093A4
:1031300075031092A5031092A40310922502109219
:1031400047021092230281E0809322021092FD0137
:1031500061E082E10E944A1561E083E10E944A1524
:103160008091B9008E7F8093B9008091B9008D7FE6
:103170008093B90088E48093B80085E48093BC0014
:103180008FEA96E09093A3038093A20380EB96E0EE
:103190009093A1038093A003BEC061E080917A0365
:1031A0000E94031661E080917B030E9403168091C8
:1031B0007A03082E000C990BFC01E458FF4FE491B0
:1031C000F0E0EE0FFF1FE859FF4F25913491309347
:1031D000820320938103FC01E057FF4FE491E093C9
:1031E000870380917B03082E000C990BFC01E458A7
:1031F000FF4FE491F0E0EE0FFF1FE859FF4FA5915C
:10320000B491B0938403A0938303FC01E057FF4F74
:10321000E491E09388038C91E82BEC9380916F0309
:1032200090917003892B09F434C0CFB7F894809142
:10323000A603811127C0E6E8F0E08491EAE9F0E016
:103240009491E82FF0E0EE0FFF1FE158F54FA591A4
:10325000B491EC91E92321F461E08AE00E944A15DF
:1032600061E08AE00E9403168CB580618CBD8CB54C
:1032700080648CBD61E08DE00E94031661E08BE00C
:103280000E9403168091A6038F5F8093A603CFBF91
:1032900042C061E0809178030E94031661E0809152
:1032A00079030E94031680917803082E000C990B75
:1032B000FC01E458FF4FE491F0E0EE0FFF1FE859E6
:1032C000FF4F2591349130937E0320937D03FC01C1
:1032D000E057FF4FE491E093850380917903082E36
:1032E000000C990BFC01E458FF4FE491F0E0EE0F65
:1032F000FF1FE859FF4FA591B491B0938003A093AD
:103300007F03FC01E057FF4FE491E09386038C912B
:10331000E095E823EC9380917C0387FD1EC061E07B
:103320000E94031661E080917C030E944A1561E0CF
:1033300070E080E090E00E949E1560E080917C0348
:103340000E944A156AE070E080E090E00E949E15BD
:1033500061E080917C030E944A15809171039091F5
:103360007203892BD1F02091890330918A03409117
:103370008B0350918C0360E074E284EF90E00E9434
:10338000071CDA01C9014097A109B109B695A795B3
:10339000979587958093B80016C080916F039091A0
:1033A0007003892B31F080919203909193030E94D6
:1033B000F40DE0918303F091840390818091880360
:1033C00080958923808364E08BED95E00E94D00E88
:1033D00060915A03615084E593E00E94910D64E08E
:1033E00087ED95E00E94D00E80917603813011F038
:1033F00064E101C060E184E593E00E94910D64E026
:1034000083ED95E00E94D00E8FE880939103809128
:103410005803909159038038910591F480915A0393
:1034200090915B0380349105E9F4809176038130BB
:1034300011F08FEC01C08FE980939103C2E113C0BA
:103440008036910579F480915A0390915B034097FF
:1034500049F480917603813011F08FEA01C080E158
:1034600080939103C2E06AED84E593E00E94910DA0
:103470006C2F84E593E00E94910D61E884E593E070
:103480000E94910D6091910384E593E00E94910D5B
:1034900069ED84E593E00E94910D8091760381307F
:1034A00011F061EF01C062E284E593E00E94910DAA
:1034B00066E08DEC95E00E94D00E809171039091B2
:1034C0007203892BD1F020918D0330918E034091AE
:1034D0008F035091900360E074E284EF90E00E94CB
:1034E000071CDA01C9014097A109B109B695A79552
:1034F000979587958093B80011C0E0918303F09170
:103500008403908180918803892B808380916F034D
:1035100090917003892B11F00E94890D0E94BD10BB
:103520000E94850F412C512C3201439491E2C92E07
:1035300093E0D92E22242A94322C51E05093510347
:103540008FB7F8944091F9015091FA016091FB0115
:103550007091FC018FBF8091410390914203A09133
:103560004303B0914403481B590B6A0B7B0B8091BA
:103570004D0390914E03A0E0B0E084179507A60795
:10358000B70708F017C1C0E080914B03C81710F0CF
:10359000912C41C0E0914703F0914803EC0FF11DDD
:1035A00062E080810E940316CF5FEECFC82DD0E08D
:1035B0008091470390914803FC01EC0FFD1F80812F
:1035C0000E9421152496CC0FDD1FCB51DD4F892B96
:1035D00009F04BC0888199818A299B299983888326
:1035E000839480914B03881608F3E0914903F0918E
:1035F0004A03E00FF11F61E080810E944A1580912B
:10360000490390914A03FC01E00FF11F60E08081C3
:103610000E940316939480914C03981658F5092D37
:1036200010E0E0914903F0914A03E00FF11F61E0DF
:1036300080810E940316E0914903F0914A03E00F54
:10364000F11F60E080810E944A15D301C201092C5C
:1036500004C0880F991FAA1FBB1F0A94D2F75C01F0
:103660007C01E094F094812CBCCF888199818E21DB
:103670009F21B4CFC5EED2E0FE01878D90A1892BAA
:1036800021F4148E368E258E11A23696CE16DF06C4
:10369000A1F710E080914B03181770F500E0E12EC0
:1036A000F12CC701880F991FFC01E351FD4F7F01E9
:1036B00020914C030217F0F4F70140815181002E54
:1036C00002C0569547950A94E2F7642F6170129FE5
:1036D00090011124200F311DE5EEF2E080E0A58D70
:1036E000B68D2A173B0709F488C08F5F36968A305B
:1036F000B1F765C01F5FCECF80E099A1911181E045
:103700002696CC16DD06C9F79FB7F8944091F901CB
:103710005091FA016091FB017091FC019FBF4093B1
:1037200041035093420360934303709344038823FF
:1037300009F440C0809106038823E1F1C09104039D
:10374000D0910503C130D105A9F5109101031123D2
:1037500099F1612F88E492E00E94040642E050E073
:1037600062E971E088E492E00E9471050E94BD1058
:1037700023E02093680320936903D0936703C093E9
:103780006603D0936503C0936403109261031092A3
:1037900060031092630310926203612F84E593E04B
:1037A0000E942B0B0E94850F612F88E492E00E94FB
:1037B000040602C0109251030E947306BECE40FF61
:1037C0001EC0E5EEF2E080E090E0448D411119C0AA
:1037D000E0914503F0914603E20FF31F7081F6E09C
:1037E000F89FA001F99F500D1124FA01EB51FD4FF4
:1037F000748F368F258F10A2178E0E9460110F5F75
:1038000057CF019636968A309105F9F6F8CFA1E2A6
:103810001A2EAA1BBB1BFD010DC0AA1FBB1FEE1F4A
:10382000FF1FA217B307E407F50720F0A21BB30B95
:10383000E40BF50B661F771F881F991F1A9469F711
:1038400060957095809590959B01AC01BD01CF016D
:103850000895EE0FFF1F0590F491E02D09940F934A
:103860001F93CF93DF938230910510F482E090E0B4
:10387000E091AE03F091AF0320E030E0A0E0B0E0D3
:10388000309719F1408151810281138148175907FE
:10389000C8F08417950769F4109731F012960C93CD
:1038A000129713961C9327C00093AE031093AF0397
:1038B00022C02115310519F04217530718F49A0157
:1038C000BD01EF01DF01F801DBCF21153105F9F072
:1038D000281B390B2430310580F48A819B816115C6
:1038E000710521F0FB019383828304C09093AF03A1
:1038F0008093AE03FE01329644C0FE01E20FF31F37
:103900008193919322503109398328833AC02091C1
:10391000AC033091AD03232B41F420911A01309177
:103920001B013093AD032093AC032091180130911B
:1039300019012115310541F42DB73EB740911C0105
:1039400050911D01241B350BE091AC03F091AD03A8
:10395000E217F307A0F42E1B3F0B2817390778F066
:10396000AC014E5F5F4F2417350748F04E0F5F1FC5
:103970005093AD034093AC038193919302C0E0E078
:10398000F0E0CF01DF91CF911F910F910895CF9378
:10399000DF93009709F481C0FC01329713821282F1
:1039A000A091AE03B091AF03109781F420813181D3
:1039B000820F931F2091AC033091AD032817390774
:1039C00051F5F093AD03E093AC0367C0ED0120E047
:1039D00030E0CE17DF0740F44A815B819E0141153C
:1039E0005105F1F0EA01F5CFD383C28340815181C3
:1039F000840F951FC817D90759F488819981840FBE
:103A0000951F0296918380838A819B819383828311
:103A10002115310529F4F093AF03E093AE033DC0C7
:103A2000E901FB83EA8349915991C40FD51FEC1733
:103A3000FD0761F480819181840F951F0296E90151
:103A400099838883828193819B838A83E0E0F0E07D
:103A500012968D919C911397009719F0FD01DC014E
:103A6000F7CF8D919C9111979D012E5F3F4F820F53
:103A7000931F2091AC033091AD032817390769F4E7
:103A8000309729F41092AF031092AE0302C0138254
:103A90001282B093AD03A093AC03DF91CF91089550
:103AA00081E090E0F8940C945C1DDC0101C06D9302
:103AB00041505040E0F7089515E0C6E4D5E004C059
:103AC000FE010E94291C2196C734D107C9F7F8943A
:023AD000FFCF26
:103AD2000607080902030405313233413435364200
:103AE200373839432A3023440000B00380000000F5
:103AF2000000040671059B055106CC05AA05BE050A
:103B0200000000000A07DD068E0AB106D506C106CE
:103B1200B20600000000980A940A910A0000000010
:103B22002B0B71058E0A8D0A3907B106D409AC092F
:103B3200C809BC09DB09B106F707F70D9C0AE00AC0
:103B4200F508D8086B080C0853534431333036203B
:103B5200616C6C6F636174696F6E206661696C651C
:063B620064000D0A0000E2
:107E0000112484B714BE81FFF0D085E080938100F7
:107E100082E08093C00088E18093C10086E0809377
:107E2000C20080E18093C4008EE0C9D0259A86E02C
:107E300020E33CEF91E0309385002093840096BBD3
:107E4000B09BFECF1D9AA8958150A9F7CC24DD24C4
:107E500088248394B5E0AB2EA1E19A2EF3E0BF2EE7
:107E6000A2D0813461F49FD0082FAFD0023811F036
:107E7000013811F484E001C083E08DD089C08234E0
:107E800011F484E103C0853419F485E0A6D080C0E4
:107E9000853579F488D0E82EFF2485D0082F10E0AE
:107EA000102F00270E291F29000F111F8ED06801E7
:107EB0006FC0863521F484E090D080E0DECF843638
:107EC00009F040C070D06FD0082F6DD080E0C81688
:107ED00080E7D80618F4F601B7BEE895C0E0D1E017
:107EE00062D089930C17E1F7F0E0CF16F0E7DF06D8
:107EF00018F0F601B7BEE89568D007B600FCFDCFD4
:107F0000A601A0E0B1E02C9130E011968C91119780
:107F100090E0982F8827822B932B1296FA010C0160
:107F200087BEE89511244E5F5F4FF1E0A038BF0790
:107F300051F7F601A7BEE89507B600FCFDCF97BE46
:107F4000E89526C08437B1F42ED02DD0F82E2BD052
:107F50003CD0F601EF2C8F010F5F1F4F84911BD097
:107F6000EA94F801C1F70894C11CD11CFA94CF0C13
:107F7000D11C0EC0853739F428D08EE10CD085E9AC
:107F80000AD08FE07ACF813511F488E018D01DD067
:107F900080E101D065CF982F8091C00085FFFCCF94
:107FA0009093C60008958091C00087FFFCCF809118
:107FB000C00084FD01C0A8958091C6000895E0E648
:107FC000F0E098E1908380830895EDDF803219F02E
:107FD00088E0F5DFFFCF84E1DECF1F93182FE3DFCA
:107FE0001150E9F7F2DF1F91089580E0E8DFEE27F6
:047FF000FF270994CA
:027FFE00040479
:0400000300007E007B
:00000001FF
