:020000040800F2
:10000000200D002055020008B152000841350008BB
:10001000AD5200084D040008E96600080000000029
:100020000000000000000000000000003161000836
:100030008104000800000000BD5E00083561000872
:100040006F0200086F0200086F0200086F020008CC
:100050006F0200086F0200086F0200086F020008BC
:100060006F0200086F0200086F0200086F020008AC
:100070006F0200086F0200086F0200086F0200089C
:10008000510400085D0400086F0200086F020008B8
:100090006F0200086F0200086F0200086F0200087C
:1000A0006F0200086F0200086F0200086F0200086C
:1000B0006F0200086F0200086F0200085135000847
:1000C000453500086F0200086F020008C15E000895
:1000D0006F0200086F020008DD6600086F0200086A
:1000E0006F0200086F0200086F0200086F0200082C
:1000F0006F0200086F0200086F0200086F0200081C
:100100006F0200086F0200086F0200086F0200080B
:100110006F0200086F0200086F0200086F020008FB
:10012000690400086F0200086F02000875040008E7
:100130006F0200086F0200086F0200086F020008DB
:100140006F0200086F0200086F0200086F020008CB
:100150006F0200086F0200086F0200086F020008BB
:100160006F0200086F0200086F0200086F020008AB
:100170006F0200086F0200086F0200080000000014
:100180006F0200086F02000800F002F800F052F859
:1001900014A696E8000CB244B344DA4501D100F04D
:1001A00049F8BAE80F000FA696E83000A5EB040561
:1001B00004EB0607AAEB0704A7F101074FEA1515A0
:1001C0004FEA3414A4F10104AC4201D300F032F838
:1001D00013F0010F18BFFB1A43F0010300F001F800
:1001E000DBE71847E86A0000086B0000103A24BFFC
:1001F00078C878C1FAD8520724BF30C830C144BF8C
:1002000004680C6070470000704700000023002461
:1002100000250026103A28BF78C1FBD8520728BF16
:1002200030C148BF0B6070471FB506F08EFA1FBD86
:1002300010B510BD00F0D0F81146FFF7F5FF06F03D
:1002400055FA00F0EEF803B4FFF7F2FF03BC00F03C
:10025000F5F800000948804709480047FEE7FEE737
:10026000FEE7FEE7FEE7FEE7FEE7FEE7FEE7FEE766
:1002700004480549054A064B70470000E161000843
:100280008901000820070020200D002020090020FF
:100290002009002053EA020C00F069802DE9F04BA0
:1002A0004FF00006002B1FBFB3FA83F503FA05F4E5
:1002B00024FA05F65E4012BF1643B2FA82F502FA3E
:1002C00005F4C5F120051EBF22FA05FC44EA0C0422
:1002D000203556EA044C4FEA144418BF641C4FF012
:1002E00000084FF00009904271EB030C39D300294C
:1002F00019BFB1FA81F701FA07F6B0FA80F700FAF0
:1003000007F6C7F120071EBF20FA07FC46EA0C06D5
:100310002037B6FBF4FCA7EB0507103F07F01F0BD7
:10032000CBF120062CFA06F60CFA0BFB44BFB346C1
:100330000026202FA4BF5E464FF0000B5BEA060CA0
:1003400008BF4FF0010B19EB0B0948EB0608ABFB9C
:10035000027C06FB02CC0BFB03CCC01B71EB0C0137
:10036000C1E70B46024641464846BDE8F08B13B54F
:10037000084318BF4FF0FF300146AFF30080BDE8DF
:100380001C4070474FF0000200B513469446964655
:10039000203922BFA0E80C50A0E80C50B1F1200198
:1003A000BFF4F7AF090728BFA0E80C5048BF0CC046
:1003B0005DF804EB890028BF40F8042B08BF7047A4
:1003C00048BF20F8022B11F0804F18BF00F8012B16
:1003D0007047704770477047754600F02BF8AE467F
:1003E00005006946534620F00700854618B020B541
:1003F000FFF73EFFBDE820404FF000064FF000073A
:100400004FF000084FF0000BAC46ACE8C009ACE878
:10041000C009ACE8C009ACE8C00921F007018D466D
:10042000704710B50446AFF300802046BDE8104089
:10043000FFF709BF0048704710000020014918204D
:10044000ABBEFEE72600020070470000FEE700009A
:1004500040F2A810C2F2000000F040B940F288005B
:10046000C2F2000000F03AB940F2E800C2F2000027
:1004700000F034B940F24810C2F2000000F02EB98A
:10048000704700002DE9F04F85B0044640F60006A5
:1004900000200021EF22EF23C4F2020604F00AFD3F
:1004A000A6F5806001210022019000F0E7FB3046B4
:1004B0002021012200F0E2FB03208DF80C00200C2B
:1004C0008DF80D00200A8DF80E0030460221002222
:1004D0008DF80F4000F0D2FB40F2B427C2F20007C3
:1004E00003A938460422642301F0BAFF40F25435D0
:1004F000C2F20005384629464FF4F0724FF47A7381
:1005000001F0AEFE30460221012200F0B7FB04F5F7
:10051000F07040F2345940F2157B40F25C2440F612
:10052000000640F2B428C2F20009C2F2000BC2F287
:1005300000044FF0000AC4F20206C2F20008029062
:1005400005E000BF0AF1010ABAF1F00F4ED04946AA
:1005500000205FEACA7708BF29468BF800002046D2
:100560004FF4F07202F056FABAF1EF0F2CD0002FD0
:100570002F4608BF4F460299CAEB0A1001EB401004
:1005800003218DF81010010C8DF81110010A8DF85F
:1005900012108DF8130030460221002200F06EFB8D
:1005A000404604A90422642301F05AFF404639461C
:1005B0004FF4F0724FF47A7301F052FE304602218C
:1005C000012200F05BFB00BF9BF800000028B9D1BE
:1005D0009BF800000028B5D19BF800000028B1D19D
:1005E0009BF800000028EFD0ACE700BF20688168CE
:1005F000090609D58168090644BF81685FEA01617F
:1006000002D581680906F2D401980121012200F087
:1006100035FB05B0BDE8F08F72B600BFFEE7000005
:1006200070B5866D044600F02FFB94F83510022952
:1006300028D105462068216C026822F0160202606B
:10064000426922F08002426109B9A16C19B10168C6
:1006500021F008010160016821F00101016000BF83
:1006600020680068C00715D000F00EFB401B06286C
:10067000F6D320206065032084F83500002184F83B
:10068000341070BD802060650120002184F8341092
:1006900070BD00BFE06D3F2101FA00F0B0600120A5
:1006A00084F835000020002184F8341070BD00006B
:1006B00090F83510022909D1052180F8351000681D
:1006C000016821F00101016000207047802141652F
:1006D0000120704790F8350070470000F0B581B0F8
:1006E0000021009140F20801C2F200010B68D0E93C
:1006F000166148F2B51537680822C1F64E358A40B2
:100700003A42A3FB05350CD003681C68640708D582
:100710001C6824F004041C60B260426D42F00102C7
:10072000426501228A403A4208D003685B691B0691
:1007300004D5B260426D42F00202426504228A4052
:100740003A4208D003681B689B0704D5B260426D2B
:1007500042F00402426510228A403A4219D00168F0
:100760000B681B0715D5B2600B680A685B0309D4D8
:10077000D20509D40A6822F008020A60016C29B97E
:1007800007E000BF110341D4016C11B10446884752
:100790002046C26D202101FA02F33B4243D001689A
:1007A0000F68FF063FD5B36090F835700B68052FD2
:1007B0001CD123F016030B604B6923F080034B61BF
:1007C000036C0BB9836C1BB10B6823F008030B603F
:1007D0003F219140B160012180F83510016D002268
:1007E000002980F8342054D158E000BF0A685B0328
:1007F00010D4D20512D40A6822F010020A60012136
:1008000080F83510002180F8341007E0816C002951
:10081000BCD1BEE7110301D4416C00E0C16B11B142
:10082000044688472046416DC1B3416DC9072ED0AB
:10083000052180F835100168AA0A0B6823F001032E
:100840000B60009B0133934200931AD80B68DB07BF
:1008500017D0009B01339342009312D80B68DB073B
:100860000FD0009B0133934200930AD80B68DB073B
:1008700007D0009B01339342009302D80B68DB073B
:10088000DFD1012180F83510002180F83410C16CCF
:1008900021B101B0BDE8F040084700BF01B0F0BD94
:1008A0002DE9F041044600F0EFF9ECB105460220D5
:1008B00084F835000020216884F83400086820F0AE
:1008C0000100086021680868C00711D000F0DCF959
:1008D000401B0528F6D9032520230320636584F8EF
:1008E0003550BDE8F08100BF0120BDE8F08100BFB8
:1008F000086848F23F02CFF21002D4E9013500EA5D
:10090000020C04F10C0898E8C10143EA0C032B43E4
:100910001843D4E9072E304338431043626A40EA53
:100920000E00042A40EA08031CD1206BD4E90A2EE9
:1009300040EA0E00184308604869BEF1000F20F03D
:10094000030040EA020040F0040C11D0B8F5005F4B
:1009500036D0B8F1000F45D1022A46D0012A3BD04B
:1009600032B942E00B60486920F0070040EA020C0F
:1009700001F0F8004AF6AB221038CAF6AA22A0FB12
:1009800002231A0946F6C443C1F814C0C0F6000396
:100990009A5C40F2FF335F284FF03F0021EA0301E9
:1009A00000FA02F088BF0431C4E9161288600023FF
:1009B00001250020636584F83550BDE8F08100BF53
:1009C000032AD5D8012540230120DFE802F0030ED9
:1009D000030500BF82E700BFAEF1C070B0FA80F03F
:1009E000400904E0032A04D3C2D1CEF300600028FA
:1009F000BED0012540230120636584F83550BDE851
:100A0000F081000090F834C0BCF1010F04BF022057
:100A1000704770B54FF0010C80F834C0D0F858E042
:100A200090F835C0BCF1010F38D14FF0020C80F8BE
:100A300035C04FF0000CC0F854C0D0F800C0846836
:100A4000056CC06DDCF80060402C26F48026CCF8E4
:100A50000060CCF804300B4604BF13460A463F2121
:100A600001FA00F0CCF80830CCF80C20CEF80800E1
:100A7000DCF8000040F01600CCF800002DB1DCF8E6
:100A8000000040F00800CCF80000DCF8000040F066
:100A90000100CCF80000002070BD00BF002180F8EC
:100AA0003410022070BD0000B0B5044600F0ECF830
:100AB000054640F20000C2F200000078611C18BF39
:100AC000044400BF00F0E0F8401BA042FAD3B0BDE0
:100AD0002DE9F04F83B000F1200200F13E4741F6CE
:100AE0000045009207F1FF77C4F2020508224FEAA1
:100AF000B726A84208BF072200254FF000084FF094
:100B00000009072E38BF4FEAB72201920AE000BF62
:100B100009F1010908F10208B9F1100F05F1040506
:100B200000F0A2800F68012202FA09FE17EA0E0AFD
:100B3000EED0D1F804C003220CF003077E1E02FAA7
:100B400008F4012E6FEA040B12D88468CE6804EA18
:100B50000B0406FA08F634438460446824EA0E065F
:100B6000CCF3001404FA09F42643466004E000BF05
:100B7000032F01D103271EE0C6688C6806EA0B0626
:100B800004FA08F42643022FC66014D16FF0030262
:100B9000009E02EA590756F807C005F01C040F2210
:100BA0000B69A2402CEA0202A3401A43F251D1F889
:100BB00004C00CF00307026807FA08F302EA0B020C
:100BC0001A431CF4403F0260A2D0002243F64403C3
:100BD0000292C4F202031A6843F6004442F48042CF
:100BE0001A601A68C4F2010402F480420292029A66
:100BF00029F003024FF6084C2244CFF6FF7C52F84E
:100C00000C3005F00C070F26BE40B343019E06FAD8
:100C100007F73B4342F80C30A2684B6842EA0A07E8
:100C200043F60C4CDE0258BF22EA0A07A760C4F262
:100C3000010CDCF800209E0242EA0A0758BF22EAB3
:100C40000A07CCF8007062689E0342EA0A0758BFA0
:100C500022EA0A0767602268DB0342EA0A0758BFF4
:100C600022EA0A07276053E703B0BDE8F08F0000CF
:100C70000069084018BF012070470000002A08BF23
:100C8000090481617047000040F21870C2F2000050
:100C9000006870477047000070470000F0B581B0F1
:100CA0000446006800254769426894F83E1002F443
:100CB0008076FA0505D5002E1EBF6FF48072426162
:100CC0000125BA0505D5002E1EBF02356FF400724E
:100CD00042617A0516D5AEB1628D94F83D30D4F8F4
:100CE00030C0202908BF002A24D06FF48062402938
:100CF00005F10405426101D0102903D1016841F4D6
:100D000000710160380507D536B1206808356FF4E9
:100D10000061416101E000BF55B1206C40EA05016E
:100D20002046216401B0BDE8F04002F0A7BC00BF3E
:100D300001B0F0BD03F0F701212909D0282B08BF2D
:100D4000BCF1210F04D06FF4806141610435D9E713
:100D500094F83D10E26AB2F1080318BF0123203A6B
:100D600018BF0122134208BF282921D0212939D1D7
:100D70000021CFF6FF71E16221212163202184F857
:100D80003D10002184F83E10426822F4E062426087
:100D90006FF480624261026822F4806202604269FC
:100DA000120648BF0161204600F0F8FCAAE700BF28
:100DB0000021CFF6FF71E162416821F4E0614160FA
:100DC0006FF480614161016821F48061016000205D
:100DD0002021206384F83D1084F83E00204600F076
:100DE000BBFB8FE76FF4806141618BE7F0B581B0A9
:100DF00007687968C26A90F83E5090F83DE0402D4F
:100E000001D0102D34D1BB697C69E60718D1B2F14D
:100E10002A4F00F06B82B2F52A0F00F0678222079A
:100E200001F4007240F10681002A00F00381416B59
:100E3000426C0029D2B23A6140F0B080B0E000BF0D
:100E40008A0543D44FF0010C7A685B076ED4120513
:100E500000F14C8204F04402402A40F0598111F420
:100E6000806100F0558101B0BDE8F04002F048BD5E
:100E7000026C01F40073002A0CBFBC6900247D6978
:100E8000AA0729D543B3016C002918BFBC6990F8A3
:100E90003D1001F02801282940F0C0807968012226
:100EA00021F48061796004F0040182EA9101220654
:100EB0004FF0180258BF0C22825A002380F83C30B1
:100EC00001B0BDE8F040FFF7E7BE00BFC16AB1F571
:100ED0002A0F3DD1012140E0EA066FD5002B6DD0ED
:100EE00090F83D50796821F4E0617960002100912B
:100EF00079690091396841F00101396000993968D8
:100F000021F4806139607968090540F17D8105F03F
:100F1000F7010446222940F04D8154F8381F0A6831
:100F2000526824F80E2C34F80E2C4BE1120500F117
:100F3000DD8104F08402802A40F0FA8011F480619F
:100F400000F0F68001B0BDE8F04002F0BBBD00BF8C
:100F5000C16AB1F12A4F01D10821C16290F83E1057
:100F600040290BD1016D406C002900F0FE0018BF34
:100F700040F00100386101B0F0BD00BF0169B1F57A
:100F8000804F40F0898090F83D10426C212902F09A
:100F9000FE0218BF01323A61416B09B1C96B39B920
:100FA000806B002800F0A281C06B002800F09E81B9
:100FB000786840F40060786001B0F0BD0EF0F70290
:100FC000212A79D105F08402802A40F0C58011F4ED
:100FD000806100F0C18090F83D10428D002A00F041
:100FE0008581426A12F8013B3B614262428D013ABF
:100FF0004285428D002A08BF292940F0778179680F
:1010000021F48061796021210163282180F83D105D
:1010100001B0BDE8F04000F0C1BB00BF002100916D
:101020007A690092BA690092009A80F83C1001B087
:10103000F0BD00BF4FF0010CA6078CEA522C7FF5E3
:1010400003AF002A3FF400AF90F83E20C16A036B63
:1010500090F83D60222E40F0A380066D002E08BF60
:10106000402A00F09D80026D002A40F04181026913
:10107000B2F5404F40F03C81002100917969009128
:10108000B96900910099396841F480713960016D46
:101090000131016501B0F0BD016D002900F004814E
:1010A000016D012940F02281406C062101EAD01037
:1010B000F130386101B0F0BD05F04402402A5BD147
:1010C00011F4806158D090F83D10428D002A00F054
:1010D0000D813A69436A1A70426A01324262428D56
:1010E000013A4285428D002A08BF2A2940F0FE803D
:1010F00001684A6822F480624A6022210163282143
:1011000080F83D1001B0BDE8F04000F045BB00BFE5
:1011100004F00401012282EA910141EA0C01C907AD
:1011200040F0E48001B0BDE8F04002F06DBB00BFCC
:1011300004F00401012282EA910141EA0C01C9078D
:1011400040F0D480BEF1210F40F0C88001B0BDE86E
:10115000F04002F075BC00BF690740F1C780002B6A
:1011600000F0C480418D002900F0C080416A11F870
:10117000012B3A610FE000BF690740F1B780002BF7
:1011800000F0B480418D002900F0B0803969426AD6
:101190001170416A01314162418D01394185A5E0FB
:1011A0000020009078690090B8690090009801B024
:1011B000F0BD00BF54F8341F0A68526824F80A2CA6
:1011C00034F80A2C1AB1026C42F0040202647A6804
:1011D000064622F4006208467A60FFF77BFA014671
:1011E0003046012910D0206843F25D51C0F600015D
:1011F0000165FFF75DFA0146304629B121680446D2
:101200000A6D084690472046418D61B101684A69E0
:1012100052072FD44A69520639D4418D19B1016C55
:1012200041F004010164016C21B101B0BDE8F0405E
:1012300002F024BA2A2D08D100210163282180F868
:101240003D10044600F0A8FA204690F83D102829E9
:1012500032D10021CFF6FF71C1620021202201634B
:1012600080F83D2080F83E1001B0BDE8F04000F06D
:1012700073B900BF0969426A1170426A016801329C
:101280004262428D013A42854A695206C5D50969D2
:10129000426A1170416A01314162418D01394185D3
:1012A000418D0029BBD1BEE7406C062101EAD01078
:1012B000F030386101B0F0BD016B222918BF222D3A
:1012C00014D100212022016380F83D2080F83E10D7
:1012D00001B0BDE8F04000F05FBA00BF402D05D17D
:1012E00001B0BDE8F04002F047BC00BF01B0F0BD66
:1012F000428D52B1428D012A16D1202918BF0829EA
:1013000026D1396821F48061396000210091796922
:101310000091B96900910099396841F40071396010
:101320000021016501B0F0BD428D022A0CD11029C7
:1013300032D8012214238A40C0F201031A422BD072
:101340004FF480622EE000BF3A6842F480622BE0E6
:1013500011F5803F0CD1396821F4806139607968DA
:101360000905D2D5396821F48061396030E000BFC9
:10137000122B01D10129C4D11029F3D8012202FA7C
:1013800001F11422C0F201021142EBD0396841F49C
:10139000806139601CE000BF3A6822F480623A60E4
:1013A0004FF400623B681A433A607A6812050FD521
:1013B0004A1E1F2A18D8012303FA02F248F28103B9
:1013C000C8F200031A420FD0796841F48051796065
:1013D0000021009179690091B9690091009900217B
:1013E000016501B0F0BD00BF11F5803FECD0EFE723
:1013F00070470000002804BF01207047F0B581B09D
:10140000044690F83D0028B9002084F83C002046AE
:1014100000F05AF9242084F83D002068016821F08A
:1014200001010160016841F400410160016821F49B
:101430000041016000F01EFB636848F2A16CC0F23D
:10144000010C40F60011C0F23D0163453CBF48F27B
:101450008041C0F21E01884202D2012001B0F0BDDD
:101460004DF68361C4F21B31A0FB01122168970C79
:10147000D1F804E04FF496762EF03F0545EA924508
:101480004D60774348F638160D6AC0F24106A7FB57
:10149000067625F03F07634538BF960C721C3A4329
:1014A0000A62CA6948F2A0664CF6FF77C0F20106EC
:1014B000B34222EA07020BD801385B00B0FBF3F01D
:1014C00001306FF31F30042898BF04201BE000BFD9
:1014D000A768013857B119277B43B0FBF3F00130FF
:1014E0006FF31F3070B100F5804007E003EB43035A
:1014F000B0FBF3F001306FF31F3018B100F500407E
:1015000001E000BF01201043C8610868D4E9072347
:1015100020F0C000104318430860886848F2FF328A
:1015200004F10C0790438CCF18431043A6698860E0
:10153000C86820F0FF0038433043C860086840F0B6
:101540000100086000202021206484F83D10206301
:1015500084F83E0001B0F0BD704700007047000005
:101560007047000070470000704700002DE9F0430D
:1015700083B0994616460F460446FFF785FB94F85C
:101580003D10202924D10546206800BF81698907C4
:101590001AD5FFF779FB411B20681A29F6D3816918
:1015A0008907F3D500202021206384F83D1084F8BA
:1015B0003E00216C41F02001216484F83C000220AF
:1015C00003B0BDE8F08300BF94F83C10012903D1BB
:1015D000022003B0BDE8F083012284F83C200368B8
:1015E000DDE90B180A9ADB0703D1036843F0010316
:1015F0000360036823F400630360212084F83D0046
:10160000402084F83E000020206462626185608D85
:10161000394620850020CFF6FF70E0622046324632
:101620004B46CDE9008502F007FB18B1012003B05D
:10163000BDE8F083208D98B9204641462A4602F045
:101640005FFB88B3206C0428F0D12068016841F466
:1016500000710160012003B0BDE8F0830004EBD00D
:10166000204641462A4602F0FBFC0028EAD1616A86
:101670002268084610F8013B1361238D6062581EF2
:101680002085678D013F678557697F07E6D5070489
:10169000E4D048781061881C6062981E2085618DB6
:1016A00001396185DAE700BF2068016841F4007103
:1016B0000160202084F83D00002084F83E0084F87A
:1016C0003C0003B0BDE8F08370B586B0044645F237
:1016D00000402168C4F20000002681420596CDE951
:1016E00003660296019601D006B070BD43F6300540
:1016F0000096C4F20205296800F5D83041F00201D5
:101700002960296801F0020100910099C02101912E
:101710001221CDE90216032104910421059101A9AA
:10172000FFF7D6F9009628694FF0007140F40010D9
:101730002861286940F2880500F4001000900098A4
:1017400046F2A000C2F20005C4F2020040224FF4AB
:10175000806385E847002846C5E90436C5E9066682
:10176000C5E90866FFF79CF8002818BFFEF754FF8C
:101770001F20002100226563AC6300F08DF81F205C
:1017800000F078F820200021002200F085F82020C9
:1017900000F070F806B070BD7047000070470000A0
:1017A00040F2000040F21871C2F20000C2F20001E3
:1017B00000780A68104408607047000080B543F65E
:1017C0000040C4F20200016841F400710160016848
:1017D00041F480610160016841F48071016003207F
:1017E00000F086F80F2000F005F800F027F8002040
:1017F00080BD000070B540F20006C2F2000640F263
:1018000008013278C2F200014FF47A730968B3FB21
:10181000F2F20446B1FBF2F1084601F07DF90F2C1B
:101820004FF0010508D838B94FF0FF3021460022AB
:10183000002500F031F87460284670BD82B00020A9
:1018400043F640010190C4F202014A6842F480422A
:101850004A604A6802F480420192019A0090086846
:1018600040F080500860086800F0805000900098B8
:1018700002B07047002848BF704700F01F010122E6
:1018800002FA01F11C2202EAD0004EF20012CEF25E
:10189000000281507047000010B54EF60C5CCEF28D
:1018A000000CDCF80030C3F3022E8EF00704042C89
:1018B00028BF0424BEF103034FF0FF3E0EFA04F4E8
:1018C00038BF0023A14399400EFA03F39A43114312
:1018D00000F00F0200F160430901043A03F564438C
:1018E0006244002848BF02F10C03197010BD0000CB
:1018F0004EF60C51CEF200010A684FF6FF031A4073
:1019000060F30A2242F0806040F0FD70086070478A
:10191000002804BF012070472DE9F04143F6080874
:10192000C4F202080446D8F8F8030D4600F0070098
:10193000814207D988F8F853D8F8F80300F0070077
:10194000A84277D12068810717D5410705D5D8F877
:10195000001041F4E051C8F80010010705D5D8F88F
:10196000001041F46041C8F80010D8F80010A268D7
:1019700021F0F0011143C8F80010C00740D1D8F899
:10198000F80300F00700854207D288F8F853D8F82A
:10199000F80300F00700A8424CD12068410707D5A2
:1019A000D8F80010E26821F4E0511143C8F80010A3
:1019B000000708D5D8F80000216920F4604040EA0B
:1019C000C100C8F8000000F07DF8D8F8001046F219
:1019D0006472C1F30311C0F60002515C40F20802C8
:1019E00020FA01F140F20400C2F200000068C2F2E5
:1019F00000021160FFF7FEFE0020BDE8F08100BF8D
:101A00006068811E022907D258F8081C89015CBF52
:101A10000120BDE8F08111E0012807D158F8081C29
:101A200089035CBF0120BDE8F08107E058F8081C7D
:101A3000890703D40120BDE8F08100BFD8F8001069
:101A400021F003010843C8F80000FFF71DF906461E
:101A500041F28837D8F80000616800F00C00B0EB64
:101A6000810F8CD0FFF710F9801BB842F2D9032008
:101A7000BDE8F08140F2080043F60801C2F2000020
:101A8000C4F202010068096846F27472C1F382214F
:101A9000C0F60002515CC8407047000040F20800E8
:101AA00043F60801C2F20000C4F2020100680968AE
:101AB00046F27472C1F34231C0F60002515CC84074
:101AC0007047000010B543F60404C4F202046168D4
:101AD000C1F3810142F20040C0F2F400DFE801F0FE
:101AE00002040A0210BD00BF41F20020C0F27A00D9
:101AF00010BD00BF216801F03F0221682368490240
:101B0000C3F3881106D4A1FB00010023FEF7C2FB3A
:101B100007E000BF41F20020C0F27A004843B0FB6A
:101B2000F2F021680222C1F3014102EB4101B0FB56
:101B3000F1F010BD002804BF012070472DE9F041ED
:101B400082B00446007843F60006C007C4F20206DD
:101B50000CD0B06800F00C00042840F081803068A0
:101B6000800303D56068002800F068812078800732
:101B70001BD5B06810F00C0F09D0B06800F00C0055
:101B8000082840F087807068400200F18380306848
:101B9000800703D5E068012840F050813068216952
:101BA00020F0F80040EAC10030602078000713D42C
:101BB000207840072AD4A569002D00F03A81B0684A
:101BC00000F00C00082840F0A580012D40F00E81A7
:101BD000012002B0BDE8F0816069002800F0828039
:101BE0000020C4F247200121C0F8801EFFF74CF806
:101BF000054600BF706F8007DAD4FFF745F8401B39
:101C00000228F7D9032002B0BDE8F081306C5FEA0A
:101C1000C0080AD400200190306C40F0805030643D
:101C2000306C00F080500190019847F20007C4F238
:101C300000073868C00547D4386840F480703860C1
:101C4000FFF722F8054600BF3868C0053CD4FFF70F
:101C50001BF8401B0228F7D9032002B0BDE8F08131
:101C6000B06800F00C00082803D1706840023FF50E
:101C700076AF61683068B1F5803F07D0B1F5A02F2D
:101C800040F09A8040F480203060306840F480302A
:101C900030609AE0E068002840F20000C4F247207B
:101CA0005CD001210160FEF7EFFF05463068800738
:101CB0003FF574AFFEF7E8FF401B0228F6D903207A
:101CC00002B0BDE8F08100BFA168306F012905D0E6
:101CD000052955D140F004003067306F40F0010015
:101CE000306756E00020C4F247200021C0F8801E73
:101CF000FEF7CAFF054600BF706F80077FF558AF3B
:101D0000FEF7C2FF401B0228F6D9032002B0BDE84F
:101D1000F08100BF0027C4F2472700203866FEF795
:101D2000B3FF022D05460DD13068800140F18A8055
:101D3000FEF7AAFF401B02284FF00300F4D902B0BF
:101D4000BDE8F0813068800173D5FEF79DFF401B30
:101D500002284FF00300F5D9F1E700BF0021016030
:101D6000FEF792FF054600BF306880077FF51DAF84
:101D7000FEF78AFF401B02284FF00300F4D9DEE78C
:101D800020F001003067306F002920F00400306738
:101D90007AD0FEF779FF054641F28837306F800729
:101DA00000F18480FEF770FF401BB842F6D9032093
:101DB00002B0BDE8F08100BF20F4803030603068B0
:101DC000002920F4802030607AD0FEF75DFF0546C0
:101DD000306880033FF5CAAEFEF756FF401B64280B
:101DE000F6D9032002B0BDE8F08100BF7068E16958
:101DF00000F480028A4221D1216A00F03F028A4227
:101E00001CD147F6C071626A0140B1EB821F15D147
:101E1000A16A4FF6FF73C903994300F44032A1F55C
:101E200080318A420AD1E16A00F07060B0EB016F44
:101E300004D1002002B0BDE8F08100BF012002B053
:101E4000BDE8F08104F11C052FCD084340EA821063
:101E5000D9034FF6FF729143A1F5803140EA056046
:101E60000843706001203866FEF70EFF044600BF8D
:101E700030688001DDD4FEF707FF001B02284FF019
:101E80000300F5D95BE700BFFEF7FEFE054641F211
:101E9000883700BF306F800708D5FEF7F5FE401B7E
:101EA000B8424FF00300F5D949E700BFB8F1000F81
:101EB0003FF581AE306C20F0805030647BE600BF8F
:101EC000FEF7E2FE054600BF306880037FF54EAEA8
:101ED000FEF7DAFE401B64284FF00300F4D92EE72A
:101EE00070470000B0B582B001684A688B6803F0A3
:101EF0004105012D08D112F0400505D0016C02B05A
:101F0000BDE8B040084700BF9D0707D512F0800527
:101F100004D0416C02B0BDE8B040084713F4B07F74
:101F200018BF12F0200501D102B0B0BD5D0618D572
:101F300090F85150032D09D100200190C8680190FC
:101F400088680190019802B0B0BD00BF456D45F0B2
:101F50000405456500250195CD6801958D680195BD
:101F6000019D9D0604D4DB0511D4436DDBB9DBE78D
:101F7000456D45F001054565002501958D68019584
:101F80000D6825F040050D60019DDB05EDD5436D25
:101F900043F008034365002301938B680193019B81
:101FA000436D002BC0D04B68920723F0E0034B60D9
:101FB0004FF0010380F8513026D04A6845F6CD64D1
:101FC00022F003024A60C16CC0F6000459B1054614
:101FD00008460C65FEF76CFB0146284619B1416DB9
:101FE00041F040014165816C00299DD00C6504469B
:101FF0000846FEF75DFB002896D0606D40F040007B
:10200000606502B0B0BD00BF02B0BDE8B040FFF7F0
:1020100067BF000070B528B1416A29B10021016194
:10202000142106E0012070BD4168B1F5827F02D025
:102030001C21002242500026866290F8511029B9D6
:1020400080F85060054600F03DF82846022180F8EF
:10205000511090E82E0002F482720C6803F40443DD
:1020600024F040040C601A4405F4006305691A4426
:1020700005F0020345691A4405F001038569C46946
:102080001A4405F400731A4404F03803046A1A442D
:1020900004F08003846A1A4304F400531A430A606C
:1020A000436A042202EA154203F010031A444A600C
:1020B000CA6922F40062CA610121466580F85110A4
:1020C000304670BD2DE9F04786B00446006843F6FF
:1020D0000001C4F2000100258842CDE90455CDE994
:1020E0000255019576D043F20001C4F20101884205
:1020F00040F0B380002643F630000096C4F20200A0
:10210000416946F2104841F4805141614169C4F28D
:10211000020801F48051009100990096016841F095
:1021200001010160006801A900F001000090009821
:10213000E02001900220CDE9020603200490052052
:1021400005900020C4F20200FEF7C2FC40F24815E0
:1021500008F14800C2F200054FF0C06A4021C5E90D
:10216000000A05F108004FF4806980E842024FF44C
:1021700080372846C5E90566EE61C5E90876FEF7B1
:102180008FFB002818BFFEF747FAA564AC6340F246
:10219000E805C2F200052846C5E9008AC5E90266DD
:1021A000C5E90496C5E90666C5E90876FEF778FB39
:1021B000002818BFFEF730FA232000210022E56432
:1021C000AC63FFF769FB2320FFF754FB06B0BDE8C3
:1021D000F08700BF43F630000095C4F202000169A9
:1021E000002741F4804101610169C4F2020701F452
:1021F0008041009100990095016801AC41F0040113
:10220000016001684FF0020801F00401009100999B
:10221000009501684FF0030941F002010160006878
:10222000052600F00200009000980C20019007F5B0
:1022300000602146CDE90285CDF810900596FEF7A5
:1022400047FC4FF48060CDE9010807F58060214626
:10225000CDE903590596FEF73BFC06B0BDE8F087D3
:102260002DE9F04182B0044690F8510001281AD1BE
:1022700000294FF0010018BF002A03D102B0BDE8C9
:10228000F08100BF60681D461746B0F5827F03D11C
:10229000A068002800F0BC800E46FEF7F5FC94F81C
:1022A0005010012904D1022002B0BDE8F08100BF26
:1022B0008046012084F850000420002184F8510059
:1022C0006165A663A787E7872163A186E186A26887
:1022D0002068B2F5004F2164616437D00168490677
:1022E0003FD5E168E08F002943D000287AD0681CF0
:1022F0000BD11AE0C068A16B21F8020BA163E08F3B
:102300000138E087E08F00286CD020688168C90719
:10231000F0D1FEF7B9FCA0EB0800A842F2D342E0EE
:10232000FEF7B2FCE08F00285CD020688168C90706
:10233000F6D0C068A16B21F8020BA163E08F0138D1
:10234000E087E08F0028F0D14CE000BF016821F069
:1023500040010160016821F4804101600168490683
:10236000BFD4016841F040010160E168E08F0029BD
:10237000BBD1B8B3681C0CD124E000BF007BA16BBB
:102380000870A06B0130A063E08F0138E087E08F18
:1023900040B320688168C907F0D1FEF775FCA0EB57
:1023A0000800A842F3D3012084F85100002084F8EB
:1023B0005000032002B0BDE8F08100BFFEF764FCCE
:1023C000E08F78B120688168C907F7D0007BA16BE6
:1023D0000870A06B0130A063E08F0138E087E08FC8
:1023E0000028EFD16068B0F5827F0ED1A068B0F50B
:1023F000004F02D0B0F5806F16D12168B0F5806F24
:102400000A6822F040020A600ED1204601210DE048
:10241000042084F8510020460A463B46009500F00F
:1024200059F902B0BDE8F0812046802100222B46F8
:10243000CDF8008003F0EAFD28B1606D40F0200087
:10244000606520206065012084F85100002084F838
:102450005000606D002818BF012002B0BDE8F08177
:102460002DE9F04184B01D4616460F460446FEF79E
:102470000BFC94F8511001290ED18046002F4FF02B
:10248000010018BF002E03D104B0BDE8F08100BFE9
:1024900094F85000012803D1022004B0BDE8F08177
:1024A000012084F850000320002184F85100616568
:1024B0002763A686E686A163A187E187A0682164D9
:1024C000B0F5004F2068616407D1016821F0400138
:1024D0000160016841F4804101600168490603D44C
:1024E000016841F0400101606168731EE268B1FA61
:1024F00081F1B3FA83F349095B09B2F5006F41EA50
:10250000030139D131B137F8021BC1602763E08E76
:102510000138E086E08E002870D0681C0BD11AE0EC
:10252000216B31F8022BC2602163E08E0138E08616
:10253000E08E002862D0206881688907F0D4FEF719
:10254000A3FBA0EB0800A842F2D338E0FEF79CFB07
:10255000E08E002852D0206881688907F6D5216B6B
:1025600031F8022BC2602163E08E0138E086E08EF4
:102570000028F0D142E000BF39B139780173206BF7
:1025800001302063E08E0138E086E08EB0B3681C35
:102590000BD123E0216B09780173206B013020639C
:1025A000E08E0138E086E08E40B3206881688907BC
:1025B000F0D4FEF769FBA0EB0800A842F3D301209A
:1025C00084F85100002084F85000032004B0BDE8D6
:1025D000F08100BFFEF758FBE08E78B1206881687B
:1025E0008907F7D5216B09780173206B01302063CF
:1025F000E08E0138E086E08E0028EFD120460221EF
:1026000001222B46CDF8008003F000FDE0B1606DA3
:1026100040F02000606520206065A06838B9002087
:1026200002902068C168029180680290029801209F
:1026300084F85100002084F85000606D002818BF15
:10264000012004B0BDE8F08140F20800C2F20000B1
:10265000006849F68171C1F25E61A0FB0101480D7D
:102660004FF47A71484303906068B0F5827F0BD1D4
:102670002046802100222B46CDF8008003F0C6FCC6
:102680000028C4D1C9E700BF03980028C5D003982B
:1026900001380390206881680906BED50399002996
:1026A000BBD003990139039181680906B5D5039917
:1026B0000029B2D003990139039181680906ACD58C
:1026C00003990029A9D00399013903918068000674
:1026D000DAD4A2E72DE9F04383B01E4615460F4633
:1026E0000446FEF7D1FA94F851108146012909D128
:1026F000002F4FF0010018BF002D0FD103B0BDE82F
:10270000F08300BF6068B0F5827F0DD104294FF0DF
:102710000200F3D1A1680029EAD0EFE7002EEDD046
:1027200094F85000012803D1022003B0BDE8F083E3
:10273000012084F8500094F85100002104281CBFA7
:10274000052084F851006165A563E687A6872763A5
:10275000E6862068A686216461640168490603D480
:10276000016841F0400101606168731EE268B1FADE
:1027700081F1B3FA83F3DDF8288049095B09B2F5EA
:10278000006F41EA030165D131B137F8021BC16026
:102790002763E08E0138E086012518F1010032D16F
:1027A00002E000BFFEF770FAE08E18B9E08F002853
:1027B00000F0B8802068816889070CD5E18E51B19E
:1027C000012D08D1216B002531F8022BC260216355
:1027D000E18E0139E1868168C907E3D0E18F0029E4
:1027E000E0D0C068A16B012521F8020BA163E08F46
:1027F0000138E087D6E700BFFEF746FAA0EB0900F4
:10280000404580F0A580E08E18B9E08F002800F0E8
:1028100089802068816889070CD5E18E51B1012D2E
:1028200008D1216B002531F8022BC2602163E18EB3
:102830000139E1868168C907DED0E18F0029DBD04C
:10284000C068A16B012521F8020BA163E08F01385C
:10285000E087D1E739B139780173206B013020630B
:10286000E08E0138E086012518F1010032D101E047
:10287000FEF70AFAE08E10B9E08F002852D02068E7
:10288000816889070ED5E18E61B1012D0AD1216BD6
:10289000002509780173216B206801312163E18EE5
:1028A0000139E1868168C907E2D0E18F0029DFD0D4
:1028B000C068A16B01250870A06B0130A063E08F98
:1028C0000138E087D4E700BFFEF7DEF9A0EB09008E
:1028D00040453DD2E08E08B9E08F18B3206881688A
:1028E00089070ED5E18E61B1012D0AD1216B00253A
:1028F00009780173216B206801312163E18E013970
:10290000E1868168C907DFD0E18F0029DCD0C0688B
:10291000A16B01250870A06B0130A063E08F013826
:10292000E087D1E72046022101224346CDF80090FE
:1029300003F06CFBB0B1606D40F0200060652020BA
:102940006065002084F85000012003B0BDE8F083EA
:10295000012084F85100002084F85000032003B0C7
:10296000BDE8F08340F20800C2F20000006849F6BA
:102970008171C1F25E61A0FB0101480D4FF47A71D3
:10298000484302906068B0F5827F0BD120468021D9
:1029900000224346CDF8009003F038FB0028CAD14E
:1029A00021E000BF0298F0B102980138029020683F
:1029B0008168090617D50299A9B1029901390291D6
:1029C000816809060FD5029969B10299013902910E
:1029D0008168090607D5029929B102990139029146
:1029E00080680006DED4A06838B900200190206815
:1029F000C1680191806801900198012084F851001C
:102A0000002084F85000606D002818BF012003B03A
:102A1000BDE8F08390F85130012B0BD100294FF025
:102A2000010318BF002A01D11846704790F85030B2
:102A3000012B03D102231846704700BF10B50123B4
:102A400080F85030032380F8513000234365016340
:102A50008286C2868363C0E910338387C387846814
:102A60000268B4F5004F07D1146824F040041460E4
:102A7000146844F480441460D0F848C045F6F96EF8
:102A800045F60174C0F6000EC0F60004CCE90F4E06
:102A900045F6D964C0F60004CCE91343C38E04465E
:102AA0000C326046FDF7AEFF60B1606D012340F06F
:102AB00010006065002084F85000BDE81040184602
:102AC000704700BF20680168490603D4016841F0DF
:102AD00040010160002384F85030416841F020013A
:102AE0004160416841F002014160BDE81040184674
:102AF00070470000006843F20001C4F201018842FF
:102B000018BF704740F21570C2F200000121017039
:102B10007047000070470000411E0020B0EB116FAD
:102B20001CBF012070474EF21002CEF2000251602D
:102B30004EF62351CEF20001F0230B700721906076
:102B4000116070477047000070470000B0B582B058
:102B500001680A68CC684B6902F02F05202D04F04B
:102B6000200505D125B102B0BDE8B04003F0C2BCDC
:102B70005FEA027C1EBF03F0010E04F4907313EBB6
:102B80000E0341D1036BD50618D5012B16D114F0D5
:102B9000100313D0002201920A6801924A68019240
:102BA000019A496949064BD4818DC28DC38D002B92
:102BB00018BF914240F0068202B0B0BD13062DD579
:102BC00014F080032AD090F84120212AF4D18268A1
:102BD000B2F5805F03D10269002A00F07982026AAF
:102BE000531C036212784A60C28C013A1304C284F7
:102BF000E2D1C86820F08000C860C86840F040009A
:102C0000C86002B0B0BD00BFD30718BF14F4807312
:102C100040F0E280530700F1E580EAE05206CBD5B0
:102C200014F04002C8D0CA6822F04002CA602021D5
:102C300080F8411002B0BDE8B04000F07FBC00BF9A
:102C4000C26B11684B68858D99B2002900F0B48081
:102C5000A94280F0B180C385D169B1F5807F00F0D1
:102C6000A080016851E8031F026821F4807142E8E6
:102C70000313DBB1016851E8031F026821F480717E
:102C800042E8031393B1016851E8031F026821F47D
:102C9000807142E803134BB1016851E8031F0268D9
:102CA00021F4807142E80313002BDAD1016851E866
:102CB000051F026821F0010142E80513BBB301685A
:102CC00051E8051F026821F0010142E8051373B3C2
:102CD000016851E8051F026821F0010142E805136F
:102CE0002BB3016851E8051F026821F0010142E899
:102CF0000513002BDAD11AE0016851E8051F0268BC
:102D000021F0400142E80513DBB1016851E8051FDD
:102D1000026821F0400142E8051393B1016851E8CF
:102D2000051F026821F0400142E805134BB101681C
:102D300051E8051F026821F0400142E80513002B0D
:102D4000DAD1202180F8421000210163016851E8A6
:102D5000031F026821F0100142E80313DBB1016890
:102D600051E8031F026821F0100142E8031393B1F8
:102D7000016851E8031F026821F0100142E80313C3
:102D80004BB1016851E8031F026821F0100142E8CD
:102D90000313002BDAD1C16B04460846FDF740FC53
:102DA000204602214163818DC28D891A89B202B009
:102DB000BDE8B040FFF7C6BE8D427FF4FDAED269DC
:102DC000B2F5807F7FF4F8AE0222426302B0BDE824
:102DD000B040FFF7B7BE00BF436C43F0010343644C
:102DE000530706D5BEF1000F03D0436C43F0020336
:102DF0004364930706D5BEF1000F03D0436C43F044
:102E000004034364BCF1000F06D55EEA050303D05A
:102E1000436C43F008034364436C002B3FF4CCAE97
:102E2000920605D525B1044603F064FB21682046CF
:102E30004969426C01F0400102F00802891800F073
:102E4000B98000BF016851E8031F026821F4907146
:102E500042E80313BBB3016851E8031F026821F481
:102E6000907142E8031373B3016851E8031F0268CD
:102E700021F4907142E803132BB3016851E8031F5A
:102E8000026821F4907142E80313002BDAD11AE0B2
:102E9000016851E8051F026821F0010142E80513AD
:102EA000DBB1016851E8051F026821F0010142E829
:102EB000051393B1016851E8051F026821F0010173
:102EC00042E805134BB1016851E8051F026821F083
:102ED000010142E80513002BDAD1016B012924D14D
:102EE000016851E8031F026821F0100142E8031352
:102EF000DBB1016851E8031F026821F0100142E8CC
:102F0000031393B1016851E8031F026821F0100117
:102F100042E803134BB1016851E8031F026821F036
:102F2000100142E80313002BDAD1202180F842106F
:102F30000021016301684969490640F1C3800168C5
:102F400051E8051F026821F0400142E80513DBB19A
:102F5000016851E8051F026821F0400142E80513AD
:102F600093B1016851E8051F026821F0400142E871
:102F700005134BB1016851E8051F026821F04001BB
:102F800042E80513002BDAD1C16B002900F09A80CA
:102F900046F2F512C0F60002044608460A65FDF73F
:102FA00087FB00283FF408AEE06B016D02B0BDE87E
:102FB000B04008470446FFF7C7FD0020606402B038
:102FC000B0BD00BF891A00BF026852E8032F036832
:102FD00022F4907243E80325BDB3026852E8032F40
:102FE000036822F4907243E8032575B3026852E83F
:102FF000032F036822F4907243E803252DB302687F
:1030000052E8032F036822F4907243E80325002D51
:10301000DAD11AE0026852E8052F036822F00102B3
:1030200043E80525DDB1026852E8052F036822F068
:10303000010243E8052595B1026852E8052F0368AF
:1030400022F0010243E805254DB1026852E8052F40
:10305000036822F0010243E80525002DDAD1202281
:1030600080F8422000220263026852E8032F0368BE
:1030700022F0100243E80325DDB1026852E8032F75
:10308000036822F0100243E8032595B1026852E874
:10309000032F036822F0100243E803254DB10268B4
:1030A00052E8032F036822F0100243E80325002DA5
:1030B000DAD1022289B2426302B0BDE8B040FFF724
:1030C00041BD00BF02B0BDE8B040FFF73DBD00BF4D
:1030D000026A32F8023B6FF35F234B60026283E5C2
:1030E000002804BF0120704710B5044690F8410045
:1030F00028B9002084F84000204600F021F8242060
:1031000084F841002068C16821F40051C160204664
:1031100003F070FA2068016921F49041016141696E
:1031200021F02A014161C16841F40051C1600020D1
:103130002021606484F8411084F84210606310BD5F
:1031400070B586B0044644F200402168C4F2000025
:10315000002681420596CDE903660296019601D0CC
:1031600006B070BD43F630010096C4F202010A6950
:1031700000F5DE3042F400320A610A6902F40032DE
:103180000092009A00960A6842F001020A600968FB
:1031900001F00101009100990C2101910221CDE97A
:1031A0000216032104910721059101A9FDF790FC66
:1031B00040F2A81546F28800C2F20005C4F20200EF
:1031C0004FF000614FF480624FF4807385E8430054
:1031D0002846C5E90362C5E90566C5E907366E629A
:1031E000FDF75EFB002818BFFDF716FA2620002128
:1031F0000022E563AC63FEF74FFB2620FEF73AFBA7
:1032000006B070BD70B582B090F84250202D0BD141
:1032100013460A460146002A4FF0010018BF002B52
:1032200006D102B070BD00BF022002B070BD00BF69
:10323000002622200E638A628B854E6481F842004C
:103240000C680D46C86B46F27D3C46F2DD41C0F687
:10325000000CC0F60001C0E90FC146F20121C0F622
:103260000001C0E91316211DFDF7CCFB40B1102071
:103270006864202085F84200012002B070BD00BFC4
:1032800001962868294602680192406801900198D9
:10329000286928B3086850E8030F0A6840F4807072
:1032A00042E80303E3B1086850E8030F0A6840F4FA
:1032B000807042E803039BB1086850E8030F0A6876
:1032C00040F4807042E8030353B1086850E8030FEC
:1032D0000A6840F4807042E80303002BDAD100BF93
:1032E000086850E8050F0A6840F0010042E805034D
:1032F000DBB3086850E8050F0A6840F0010042E8B7
:10330000050393B3086850E8050F0A6840F0010010
:1033100042E805034BB3086850E8050F0A6840F01F
:10332000010042E80503002BDAD11EE0086850E8EE
:10333000050F0A6840F0400042E80503FBB1086849
:1033400050E8050F0A6840F0400042E80503B3B1B9
:10335000086850E8050F0A6840F0400042E805039D
:10336000002B4FF000003FF45CAF086850E8050FF9
:103370000A6840F0400042E80503002BD6D1002047
:1033800002B070BD006844F20041C4F200018842FE
:1033900018BF704740F21470C2F2000001210170A2
:1033A00070470000704700002DE9F04381B00446EB
:1033B00090F84100202809D100294FF0010018BFE2
:1033C000002A07D101B0BDE8F08300BF022001B0A0
:1033D000BDE8F0830020606421201D460E4684F87D
:1033E00041001746FDF750FCA784E784A168814699
:1033F000B1F5805F02D1206900285DD037460020FA
:10340000E28C2168002A5DD06A1C24D0002D4AD0AD
:10341000804600BF0868000608D4FDF735FCA0EB25
:103420000900A8427AD82168C868F3E717B117F8ED
:10343000010B04E038F8020B00276FF35F204860AF
:10344000E08C0138E084E08C0028E3D13AE000BF52
:103450000A68120609D40A68120606D40A68120617
:103460005CBF0A685FEA0262F2D51FB117F8012B50
:1034700005E000BF30F8022B00276FF35F224A609F
:10348000E28C013AE284E28C002AE4D11AE000BF27
:1034900030F8022B00276FF35F224A60E28C013A7A
:1034A000E284E28C72B10A68120635D5002FEFD0A3
:1034B00017F8012BF1E700BF00273046E28C2168A6
:1034C000002AA1D1086840061ED42DB3681C14D16F
:1034D000086840062AD40868400627D408684006D1
:1034E00024D4086840064FF00000F1D50DE000BF7D
:1034F0002068C1680068400618D4FDF7C5FBA0EB42
:103500000900A842F4D909E00020202184F84110E4
:1035100001B0BDE8F08300BFFDF7B6FB032020211A
:1035200084F8411001B0BDE8F08300BF00202021E5
:1035300084F8411001B0BDE8F0830000704700003E
:10354000FEE7000040F20820C2F20000FDF7A6BB33
:1035500040F20820C2F20000FDF748BC10B581B06F
:1035600000210091806B40F20801C2F2000190F846
:103570003DC009684BF28952C908C1F2F842A1FB6B
:103580000212110A232251430091009901B30099BC
:10359000013900910268116889051DD50099B9B1FA
:1035A0000099013900911168890515D5009979B103
:1035B000009901390091116889050DD5009939B13B
:1035C00000990139009111688905DED404E000BF3B
:1035D000016C41F020010164446B4FF0000E002C9F
:1035E0001CBF0021E163816B00291CBF0022CA635C
:1035F0000268002C136823F480631360A0F82AE0AB
:1036000018BFC4F850E000291CBF00230B651168E7
:1036100021F00101116090F83D1060290CD12021AA
:1036200080F83D10002180F83E10016401B0BDE833
:103630001040FDF72FBB00BF0CF02801282911D145
:10364000116841F001011160116841F4806111605D
:1036500000210163282180F83D1001B0BDE8104031
:10366000FDF7C6BE202180F83D10002180F83E10F5
:1036700001B0BDE81040FDF7BBBE000010B5044628
:1036800090F83D1090F83E00B0F1100218BF0122F2
:10369000403818BF0120024208BF222934D001F06F
:1036A000280028283AD100202063282084F83D00F3
:1036B00020684168090542D5416821F400614160F4
:1036C000606B90F83510012958D1A06B43F25D5121
:1036D000C0F600010165FCF7EBFF002861D020680F
:1036E0004169490606D50069616A0870616A206807
:1036F00001316162016821F001010160202084F83C
:103700003D00A06B4BE000BF2068026822F400621D
:1037100002604268120505D50CE000BF20684268CF
:10372000120507D4602905D0202184F83D1000211E
:1037300084F83E100021216341680905BCD494F847
:103740003D10602950D1202184F83D1000212164D2
:103750004169490606D50069616A0870616A206896
:1037600001316162016821F0010101602046FDF72D
:1037700091FA206C000717D11BE000BF43F25D51A6
:10378000C0F600010165FCF793FF50B12168606B42
:103790000A6822F001020A60202184F83D10016DC0
:1037A0008847206C000704D02068416821F4E0615C
:1037B000416094F83D00216C490758BF10BD28288E
:1037C00010D10020CFF6FF70E0620021202021639D
:1037D00084F83D00204684F83E10BDE81040FDF717
:1037E000BBBE00BF10BD00BF4169490605D50069D9
:1037F000616A0870606A013060622046FDF7F8FD7A
:10380000206C0007D0D1D4E7C16A428D042A07D1C9
:103810000168426A4B6823F480634B60096911E0D8
:10382000428D032A16D102680229536823F480636B
:10383000536005D0042903D0116821F48061116020
:103840001169426A1170416A01314162418D013949
:1038500041857047428D022A12D14A1E0F2A19D87B
:10386000DFE802F00812181218181818181818189B
:10387000181818080268136823F480630EE000BF6C
:103880000168426ACAE700BF0268136843F48063B4
:1038900004E000BF0268136843F400731360126908
:1038A000436A1A70426AD0F800C0531C4362438DC9
:1038B000013B4385DCF810305370426A03680132E3
:1038C0004262428D013A42855A6822F440725A603F
:1038D000202280F83D2090F83E300022402B80F8D6
:1038E0003E2003D10263FDF73DBE00BFB1F10802E7
:1038F00018BF1222203918BF11460163FDF72EBEF2
:1039000081B090F83D10222910D1C16A428D042A5D
:103910000ED30168426A09691170416A013141623E
:10392000418D01394185418D032959D001B070473E
:10393000C36A012A54D8022B52D00022009240F2CE
:103940000802C2F2000212684BF28953D208C1F297
:10395000F843A2FB03231A0A02EB82020092009AA8
:10396000013A0092009A002A42D0026813689B052F
:1039700017D5009B013B0093009BCBB313689B05BD
:103980000FD5009B013B0093009B8BB313689B05F5
:1039900007D5009B013B0093009B4BB313689B052D
:1039A000DDD4136823F480631360536823F4E06369
:1039B00053601269436A1A70426A01324262428D50
:1039C000013A4285202280F83D2090F83E300022C6
:1039D000402B80F83E2027D1026301B0FDF7C2BD25
:1039E0000068416821F48061416001B0704700BF08
:1039F000016C41F0200101640168426A4B6823F4C4
:103A0000E0634B6009691170416A01314162418D87
:103A100001394185202180F83D10002180F83E10B9
:103A200001B0FDF7E5BC00BFB1F1080218BF1222DA
:103A3000203918BF1146016301B0FDF78FBD0000AA
:103A4000C16A90F83D20212A18BF7047428D4AB1C3
:103A5000416A026811F8013B13614162418D0139ED
:103A60004185704711F5803F18BF082918D10168BA
:103A70004A6822F4E0624A600A6842F400720A600E
:103A800000212022016380F83D2090F83E2080F83C
:103A90003E10402A08BFFDF767BDFDF761BD00BFBE
:103AA0002029E4D001684A6822F4E0624A601121CA
:103AB0000163002180F83E10202180F83D10FDF7C1
:103AC0004FBD000090F83D1090F83EC0C26A038DD3
:103AD000002B08BF212919D0212905D0BCF1400FA6
:103AE00008BF222900D07047418D69B390F83E107D
:103AF000402908BF00F040B8416A026811F8013B54
:103B000013614162418D01394185704712F5803F53
:103B100018BF082A1ED101684A6822F4E0624A6090
:103B20000A6842F400720A6000212022016380F8D2
:103B30003D2090F83E2080F83E10402A08BFFDF757
:103B400013BDFDF70DBD00BF0068416821F4806121
:103B500041607047202ADED001684A6822F4E062A2
:103B60004A6011210163002180F83E10202180F875
:103B70003D10FDF7F5BC000090F83D10026D5AB104
:103B8000026D012A14D10168826CD2B20A61016D02
:103B900001310165704700BFC26C816C012A15D1EB
:103BA0000268C9B21161016D02310165704700BF41
:103BB000026D022A12D1222918D101680A6842F442
:103BC00080720A60016D0131016570470268C1F3BE
:103BD00007211161016D013101657047006841697C
:103BE000090644BF00210161704700BF428D5AB1F0
:103BF000212909D1416A026811F8013B1361416230
:103C0000418D013941857047428D002A08BF212925
:103C1000EAD101684A6822F4E0624A600A6842F424
:103C200000720A6000212022016380F83D2080F8A4
:103C30003E10FDF799BC00002DE9F04383B0044627
:103C400000680F4601680A9D0B9E41F480719946F9
:103C50009046016020464FF0011100222B4600964D
:103C600000F0ACF850B120680068C00544BF4FF4C4
:103C700000702064032003B0BDE8F083206807F0E3
:103C8000FE0101610221C0F2010120462A463346AD
:103C900000F07AF920B1012003B0BDE8F08300BF45
:103CA00000200290206832464169029180692946CD
:103CB00002900298204600F0D3F958B1206C0428F5
:103CC000E9D12068016841F400710160012003B06E
:103CD000BDE8F0832068B9F1010F0AD04FEA18213E
:103CE000016120462946324600F0BAF90028E5D1A4
:103CF00020685FFA88F10161002003B0BDE8F0831D
:103D000070B50368044653F8140F400711D40E46EB
:103D1000481C29D086BB00BF1868400527D4FCF793
:103D2000B3FF236853F8140F400737D518684007CE
:103D3000F2D5002070BD00BF18684007F9D418689C
:103D4000400514D418684007F3D4186840050ED411
:103D500018684007EDD41868400508D41868400773
:103D60004FF0000048BF70BD18684005E4D56FF4FF
:103D700080601860042012E0154603E053F8140F29
:103D80004007D6D418684005F1D4FCF77DFF401BEE
:103D90002368B042F2D958694007EFD420200021AF
:103DA0002022216384F83D2084F83E10226C1043C9
:103DB0002064012084F83C1070BD00002DE9F04122
:103DC000054600681E46144601F47F0201338FB297
:103DD00042D0DDF81880B2F5803F40F0878040691E
:103DE0003840C01BB0FA80F04009844240F0C880DF
:103DF0004EB924E040693840C01BB0FA80F0400959
:103E0000844240F0BD80FCF73FFFA0EB080128682A
:103E1000B142EFD941693940C91BB1FA81F1490971
:103E20008C42E7D19BE000BF40693840C01BB0FA2C
:103E300080F0400984424FF0000040F0A280FCF77F
:103E400023FF286841693940C91BB1FA81F149094A
:103E50008C42E9D183E000BFB2F5803F24D100BF9E
:103E600041693940C91BB1FA81F149098C4240F0DE
:103E7000878041693940C91BB1FA81F149098C42F7
:103E800040F07E8041693940C91BB1FA81F149098E
:103E90008C4275D141693940C91BB1FA81F1490998
:103EA0008C42DDD06CE000BF81693940C91BB1FA9A
:103EB00081F149098C4263D181693940C91BB1FA4A
:103EC00081F149098C425BD181693940C91BB1FA42
:103ED00081F149098C4253D181693940C91BB1FA3A
:103EE00081F149098C42DFD04AE000BF8069384047
:103EF000C01BB0FA80F04009844241D146B923E0AA
:103F000080693840C01BB0FA80F04009844237D144
:103F1000FCF7BAFEA0EB08012868B142F0D981692C
:103F20003940C91BB1FA81F149098C42E8D116E048
:103F300080693840C01BB0FA80F0400984424FF0DD
:103F4000000018BFBDE8F081FCF79EFE286881697B
:103F50003940C91BB1FA81F149098C42E8D10020EE
:103F60002021286385F83D1085F83E00296C41F03A
:103F70002001296485F83C000120BDE8F08100BFE4
:103F80000020BDE8F0810000F0B581B00446006873
:103F90001D4643698FB203EA0701B94202D10020EE
:103FA00001B0F0BD4169164601323CD0490512D43A
:103FB0007EB300BFFCF768FE411B2068B14203D905
:103FC00041693940B9422BD141693940B942E6D003
:103FD00041694905EED5016841F4007101606FF453
:103FE00080614161042000212022216384F83D206A
:103FF00084F83E10226C1043206484F83C100120A9
:1040000001B0F0BD41693940B942C8D041694905A4
:10401000E1D4FCF739FE206841693940B942F1D05A
:104020002020E0E741694905D5D441693940B942CA
:10403000B5D041694905CED441693940B942AED0C5
:1040400041694905C7D441693940B942A7D041699E
:104050004905C0D441693940B942E3D19FE7000026
:1040600070B50368044653F8140F000611D40E46C9
:10407000481C29D086BB00BF1868400527D4FCF730
:1040800003FE236853F8140F000637D5186800069E
:10409000F2D5002070BD00BF18680006F9D418687A
:1040A000400514D418680006F3D4186840050ED4EF
:1040B00018680006EDD41868400508D41868000692
:1040C0004FF0000048BF70BD18684005E4D56FF49C
:1040D00080601860042012E0154603E053F8140FC6
:1040E0000006D6D418684005F1D4FCF7CDFD401B7E
:1040F0002368B042F2D958690006EFD4202000218D
:104100002022216384F83D2084F83E10226C104365
:104110002064012084F83C1070BD000070B588B0A8
:10412000FCF7B2FD40F27005C2F200056968401A62
:104130001428C0F0098141F20004C4F20204FCF723
:10414000A3FD6E78686020460121FCF791FD012EE9
:1041500034D1A8B92978B1FA81F04009287000203B
:10416000002908BF4FF4E130FCF78CF901F0A2F808
:1041700001F030FE20460121FCF77AFD0028F9D03D
:1041800020460221FCF774FD002840F0DD802878ED
:104190000138014618BF0121297018BF4FF4E130E2
:1041A000FCF770F901F086F801F014FE20460221B8
:1041B000FCF75EFD0028F9D0C6E000BFA0B9287862
:1041C000411E002808BF07212970C8B24FF4E13111
:1041D0004843FCF757F901F059FD00BF2046012183
:1041E000FCF746FD0028F9D020460221FCF740FDEF
:1041F00090B928784FF4E131013000F007002870C1
:104200004843FCF73FF901F041FD00BF2046022181
:10421000FCF72EFD0028F9D020460421FCF728FDEC
:10422000002857D1A878012826D100208DF81F003A
:10423000CDF81B00CDF81700CDF81300CDF80F0016
:10424000CDF80B00CDF8070040F27E70CFF6FF707E
:10425000009048F20360ADF80400EF208DF80600EE
:1042600040F20C30C2F20000694607226423FFF7D7
:104270009BF8022024E000BF00200790CDF8190031
:10428000CDF81500CDF81100CDF80D00CDF80900DE
:1042900040F67E10CFF6FF70009007208DF80400E6
:1042A00040F20010CEF68D70CDF8050040F20C30D3
:1042B000C2F20000694609226423FFF775F8012065
:1042C000A87001F0E3FC00BF20460421FCF7D0FCFD
:1042D0000028F9D020460821FCF7CAFCA0BB012029
:1042E000687040F27E70CFF6FF70009048F2047064
:1042F000ADF80400EF208DF8060040F20C300026E7
:10430000C2F200006946072264238DF81F60CDF8D1
:104310001B60CDF81760CDF81360CDF80F60CDF8B5
:104320000B60CDF80760FFF73FF80020AE702E70ED
:10433000FCF7A8F800F0BEFF01F04CFD2046082174
:10434000FCF796FC0028F9D008B070BD2DE9F04FBD
:1043500081B040F20044C4F2020404F580652846AE
:10436000102100220027FCF789FCC820FCF79CFBE9
:104370002846102101224FF00108FCF77FFC78202D
:10438000FCF792FB11208DF803002046012100224A
:104390004FF0110AFCF772FC2846202100224FF052
:1043A0002009FCF76BFC40F25C26C2F200060DF11E
:1043B0000301304601226423FEF752F82046012112
:1043C0000122FCF75BFC7820FCF76EFB36208DF8B1
:1043D0000300204601210022FCF750FC2846202142
:1043E0000022FCF74BFC0DF103013046012264234F
:1043F000FEF736F8204601210122FCF73FFC20465B
:10440000012100228DF80370FCF738FC284620219A
:104410000122FCF733FC0DF1030130460122642335
:10442000FEF71EF8204601210122FCF727FC3A2066
:104430008DF80300204601210022FCF71FFC2846CE
:1044400020210022FCF71AFC0DF103013046012265
:104450006423FEF705F8204601210122FCF70EFC3B
:1044600005208DF80300204601210022FCF706FC00
:10447000284620210122FCF701FC0DF10301304602
:1044800001226423FDF7ECFF204601210122FCF705
:10449000F5FBB2208DF80300204601210022FCF735
:1044A000EDFB284620210022FCF7E8FB0DF103017B
:1044B000304601226423FDF7D3FF2046012101226B
:1044C000FCF7DCFB0C208DF80300204601210022C4
:1044D0000C27FCF7D3FB284620210122FCF7CEFB5A
:1044E0000DF10301304601226423FDF7B9FF204698
:1044F00001210122FCF7C2FB2046012100228DF898
:104500000370FCF7BBFB284620210122FCF7B6FB19
:104510000DF10301304601226423FDF7A1FF20467F
:1045200001210122FCF7AAFBB7208DF803002046E9
:1045300001210022FCF7A2FB284620210022FCF7E3
:104540009DFB0DF10301304601226423FDF788FF36
:10455000204601210122FCF791FB35208DF8030054
:10456000204601210022FCF789FB28462021012258
:10457000FCF784FB0DF10301304601226423FDF7B3
:104580006FFF204601210122FCF778FBBB208DF84C
:104590000300204601210022FCF770FB2846202161
:1045A0000022FCF76BFB0DF103013046012264236E
:1045B000FDF756FF204601210122FCF75FFB192081
:1045C0008DF80300204601210022FCF757FB284606
:1045D00020210122FCF752FB0DF10301304601229C
:1045E0006423FDF73DFF204601210122FCF746FB35
:1045F000C0208DF80300204601210022FCF73EFB7D
:10460000284620210022FCF739FB0DF1030130463A
:1046100001226423FDF724FF204601210122FCF73B
:104620002DFB2C208DF80300204601210022FCF7F1
:1046300025FB284620210122FCF720FB0DF1030178
:10464000304601226423FDF70BFF204601210122A1
:10465000FCF714FBC2208DF8030020460121002244
:10466000FCF70CFB284620210022FCF707FB0DF18C
:104670000301304601226423FDF7F2FE20460121AA
:104680000122FCF7FBFA2046012100228DF803806D
:10469000FCF7F4FA284620210122FCF7EFFA0DF18D
:1046A0000301304601226423FDF7DAFE2046012192
:1046B0000122FCF7E3FAC3208DF803002046012114
:1046C0000022FCF7DBFA284620210022FCF7D6FA6C
:1046D0000DF10301304601226423FDF7C1FE20469F
:1046E00001210122FCF7CAFA12208DF803002046AE
:1046F00001210022FCF7C2FA284620210122FCF702
:10470000BDFA0DF10301304601226423FDF7A8FE36
:10471000204601210122FCF7B1FAC4208DF80300E4
:10472000204601210022FCF7A9FA28462021002278
:10473000FCF7A4FA0DF10301304601226423FDF7D2
:104740008FFE204601210122FCF798FA2046012124
:1047500000228DF80390FCF791FA284620210122CF
:10476000FCF78CFA0DF10301304601226423FDF7BA
:1047700077FE204601210122FCF780FAC6208DF841
:104780000300204601210022FCF778FA2846202168
:104790000022FCF773FA0DF1030130460122642375
:1047A000FDF75EFE204601210122FCF767FA0F208B
:1047B0008DF80300204601210022FCF75FFA28460D
:1047C00020210122FCF75AFA0DF1030130460122A3
:1047D0006423FDF745FE204601210122FCF74EFA35
:1047E0004FF0D0092046012100228DF80390FCF7FC
:1047F00045FA284620210022FCF740FA0DF103017A
:10480000304601226423FDF72BFE204601210122C0
:10481000FCF734FAA4208DF8030020460121002281
:10482000FCF72CFA284620210122FCF727FA0DF18B
:104830000301304601226423FDF712FE20460121C8
:104840000122FCF71BFAA1208DF80300204601216C
:104850000022FCF713FA284620210122FCF70EFA69
:104860000DF10301304601226423FDF7F9FD2046D6
:1048700001210122FCF702FAE0208DF80300204616
:1048800001210022FCF7FAF9284620210022FCF73A
:10489000F5F90DF10301304601226423FDF7E0FD37
:1048A000204601210122FCF7E9F9204601210022DE
:1048B0008DF80390FCF7E2F9284620210122FCF74D
:1048C000DDF90DF10301304601226423FDF7C8FD37
:1048D000204601210122FCF7D1F904208DF80300C4
:1048E000204601210022FCF7C9F928462021012297
:1048F000FCF7C4F90DF10301304601226423FDF7F2
:10490000AFFD204601210122FCF7B8F90D27204612
:10491000012100228DF80370FCF7B0F92846202110
:104920000122FCF7ABF90DF10301304601226423AB
:10493000FDF796FD204601210122FCF79FF9204654
:10494000012100228DF803A0FCF798F928462021C8
:104950000122FCF793F90DF1030130460122642393
:10496000FDF77EFD204601210122FCF787F9132087
:104970008DF80300204601210022FCF77FF928462C
:1049800020210122FCF77AF90DF1030130460122C2
:104990006423FDF765FD204601210122FCF76EF935
:1049A0002B208DF80300204601210022FCF766F938
:1049B000284620210122FCF761F90DF10301304660
:1049C00001226423FDF74CFD204601210122FCF762
:1049D00055F94FF03F0A2046012100228DF803A02F
:1049E000FCF74CF9284620210122FCF747F90DF18C
:1049F0000301304601226423FDF732FD20460121E8
:104A00000122FCF73BF954208DF8030020460121D8
:104A10000022FCF733F9284620210122FCF72EF969
:104A20000DF10301304601226423FDF719FD2046F4
:104A300001210122FCF722F94C208DF803002046C9
:104A400001210022FCF71AF9284620210122FCF757
:104A500015F90DF10301304601226423FDF700FD35
:104A6000204601210122FCF709F918208DF80300E6
:104A7000204601210022FCF701F9284620210122CD
:104A8000FCF7FCF80DF10301304601226423FDF729
:104A9000E7FC204601210122FCF7F0F82046012125
:104AA00000228DF80370FCF7E9F828462021012246
:104AB000FCF7E4F80DF10301304601226423FDF711
:104AC000CFFC204601210122FCF7D8F80B208DF8FD
:104AD0000300204601210022FCF7D0F828462021BF
:104AE0000122FCF7CBF80DF10301304601226423CB
:104AF000FDF7B6FC204601210122FCF7BFF84FF07C
:104B00001F082046012100228DF80380FCF7B6F82B
:104B1000284620210122FCF7B1F80DF103013046AF
:104B200001226423FDF79CFC204601210122FCF7B1
:104B3000A5F84FF0230B2046012100228DF803B089
:104B4000FCF79CF8284620210122FCF797F80DF18C
:104B50000301304601226423FDF782FC2046012137
:104B60000122FCF78BF8E1208DF80300204601219B
:104B70000022FCF783F8284620210022FCF77EF86B
:104B80000DF10301304601226423FDF769FC204644
:104B900001210122FCF772F82046012100228DF844
:104BA0000390FCF76BF8284620210122FCF766F8F9
:104BB0000DF10301304601226423FDF751FC20462C
:104BC00001210122FCF75AF804208DF80300204649
:104BD00001210022FCF752F8284620210122FCF78F
:104BE0004DF80DF10301304601226423FDF738FC36
:104BF000204601210122FCF741F80C208DF803002A
:104C0000204601210022FCF739F828462021012204
:104C1000FCF734F80DF10301304601226423FDF75F
:104C20001FFC204601210122FCF728F811208DF8F5
:104C30000300204601210022FCF720F8284620210D
:104C40000122FCF71BF80DF1030130460122642319
:104C5000FDF706FC204601210122FCF70FF8132086
:104C60008DF80300204601210022FCF707F82846B2
:104C700020210122FCF702F80DF103013046012248
:104C80006423FDF7EDFB204601210122FBF7F6FF2F
:104C90002C208DF80300204601210022FBF7EEFFB7
:104CA000284620210122FBF7E9FF0DF103013046E0
:104CB00001226423FDF7D4FB204601210122FBF7EA
:104CC000DDFF2046012100228DF803A0FBF7D6FF6F
:104CD000284620210122FBF7D1FF0DF103013046C8
:104CE00001226423FDF7BCFB204601210122FBF7D2
:104CF000C5FF44208DF80300204601210022FBF768
:104D0000BDFF284620210122FBF7B8FF0DF103016A
:104D1000304601226423FDF7A3FB20460121012236
:104D2000FBF7ACFF51208DF8030020460121002243
:104D3000FBF7A4FF284620210122FBF79FFF0DF17E
:104D40000301304601226423FDF78AFB204601213E
:104D50000122FBF793FF2F208DF80300204601214D
:104D60000022FBF78BFF284620210122FBF786FF5C
:104D70000DF10301304601226423FDF771FB20464B
:104D800001210122FBF77AFF2046012100228DF844
:104D90000380FBF773FF284620210122FBF76EFFFB
:104DA0000DF10301304601226423FDF759FB204633
:104DB00001210122FBF762FF2046012100228DF82C
:104DC0000380FBF75BFF284620210122FBF756FFFB
:104DD0000DF10301304601226423FDF741FB20461B
:104DE00001210122FBF74AFF20208DF80300204615
:104DF00001210022FBF742FF284620210122FBF778
:104E00003DFF0DF10301304601226423FDF728FB2D
:104E1000204601210122FBF731FF2046012100221B
:104E20008DF803B0FBF72AFF284620210122FBF76B
:104E300025FF0DF10301304601226423FDF710FB2D
:104E4000204601210122FBF719FF21208DF80300E4
:104E5000204601210022FBF711FF284620210022D5
:104E6000FBF70CFF0DF10301304601226423FDF72F
:104E7000F7FA204601210122FBF700FF29208DF8D7
:104E80000300204601210022FBF7F8FE28462021DE
:104E90000022FBF7F3FE0DF10301304601226423EB
:104EA000FDF7DEFA204601210122FBF7E7FE01B003
:104EB000BDE8F08F2DE9F04784B040F2004406468B
:104EC0002A20C4F20204174689468DF805002046C0
:104ED000012100229846FBF7D1FE04F580652846A3
:104EE00020210022FBF7CAFE40F25C2AC2F2000A2F
:104EF0000DF10501504601226423FDF7B1FA204669
:104F000001210122FBF7BAFE70BAADF80600204677
:104F100001210022FBF7B2FE284620210122FBF7E7
:104F2000ADFE0DF10601504602226423FDF798FA0A
:104F3000204601210122FBF7A1FE78BAADF8080056
:104F4000204601210022FBF799FE2846202101225C
:104F5000FBF794FE02A9504602226423FDF780FA73
:104F6000204601210122FBF789FE2B208DF80A0043
:104F7000204601210022FBF781FE28462021002245
:104F8000FBF77CFE0DF10A01504601226423FDF778
:104F900067FA204601210122FBF770FE99FA99F089
:104FA000ADF80B00204601210022FBF767FE2846E2
:104FB00020210122FBF762FE0DF10B015046022277
:104FC0006423FDF74DFA204601210122FBF756FE2E
:104FD00098FA98F0ADF80D00204601210022FBF769
:104FE0004DFE284620210122FBF748FE0DF10D0160
:104FF000504602226423FDF733FA204601210122A4
:10500000FBF73CFE2C208DF80F00204601210022EA
:10501000FBF734FE284620210022FBF72FFE0DF17E
:105020000F01504601226423FDF71AFA20460121A0
:105030000122FBF723FE04B0BDE8F08780B582B003
:10504000002043F630010190C4F202010A6842F4E4
:1050500080020A600A6802F480020192019A0090BC
:105060000868002240F4001008600868002100F47D
:105070000010009000981020FCF70EFC1020FCF7A8
:10508000F9FB112000210022FCF706FC1120FCF79F
:10509000F1FB382000210022FCF7FEFB3820FCF752
:1050A000E9FB3B2000210022FCF7F6FB3B2002B08D
:1050B000BDE88040FCF7DEBB2DE9F04387B0002758
:1050C00043F630000697CDE90477CDE902770197E2
:1050D000C4F20200016840F2004841F01001016092
:1050E0000168C4F2020801F01001019101990197D1
:1050F000016808F5806541F08001016001680122C6
:1051000001F0800101910199019701684FF0320986
:1051100041F0040101600168012401F004010191E2
:1051200001990197016841F001010160016801F0F6
:105130000101019101990197016841F002010160AB
:105140000068322100F00200019001982846FBF728
:1051500095FD404601210122FBF790FD0F2002AE94
:10516000CDE9020708F5406031460494FBF7B0FC36
:10517000CDE902944FF00209284631460497CDF854
:105180001490FBF7A5FC40463146CDE90244CDE939
:105190000479FBF79DFC07B0BDE8F08380B540F2D1
:1051A000082045F20041C2F20000C4F2000141F6BD
:1051B000802200234FF4804CC0F2060280E80E00EB
:1051C000C0E9033CC0E90533C0E90733FCF712F935
:1051D000002808BF80BDBDE88040FBF71DBA000075
:1051E00080B540F25C2043F20001C2F20000C4F23C
:1051F00001014FF4827200234FF4007C80E80E001E
:105200000A21C0E90333C0E9053CC361C0E90833A2
:10521000C0E90A31FCF7FEFE002808BF80BDBDE8EA
:105220008040FBF7F9B9000080B540F2B42043F6A6
:105230000001C2F20000C4F200014FF482720023A8
:105240004FF4007C80E80E000A21C0E90333C0E976
:10525000053CC361C0E90833C0E90A31FCF7DAFE56
:10526000002808BF80BDBDE88040FBF7D5B900002D
:1052700080B540F20C3044F20041C2F20000C4F2AA
:10528000000100234FF00C0C4FF4165280E80E0082
:10529000C0E90333C0E905C3C361FDF721FF00285E
:1052A00008BF80BDBDE88040FBF7B6B9FEE700004F
:1052B000FEE700002DE9F04F85B040F208240025FC
:1052C00064260127C2F200040DF1120B0DF1130840
:1052D0004FF0000949F0B0008DF8100004A8CDE9A6
:1052E000000720467821002201230296FCF73EF9B0
:1052F0000DF11100CDE9000720467821002201239D
:105300008DF811500296FCF731F910208DF812003B
:105310002046782100220123CDE900B70296FCF750
:1053200025F94FF0000A00BF2046782140220123D2
:105330008DF81350CDE900870296FCF717F90AF1B2
:1053400001004FFA80FABAF1FF3FEDDCB9F1070F27
:1053500009F10109BED305B0BDE8F08F2DE9F04198
:1053600084B064206425FBF79FFB40F20824AE2044
:10537000C2F200048DF80F0001260DF10F07204640
:10538000782100220123CDE9007602954FF0000834
:10539000FCF7ECF8D5208DF80F002046782100228C
:1053A0000123CDE900760295FCF7E0F880208DF826
:1053B0000F002046782100220123CDE900760295D6
:1053C000FCF7D4F8A8208DF80F00204678210022A1
:1053D0000123CDE900760295FCF7C8F83F208DF84F
:1053E0000F002046782100220123CDE900760295A6
:1053F000FCF7BCF8D3208DF80F002046782100225E
:105400000123CDE900760295FCF7B0F8204678211B
:10541000002201238DF80F80CDE900760295FCF77C
:10542000A5F84FF0400820467821002201238DF88E
:105430000F80CDE900760295FCF798F88D208DF865
:105440000F002046782100220123CDE90076029545
:10545000FCF78CF814208DF80F00204678210022EC
:105460000123CDE900760295FCF780F820208DF825
:105470000F002046782100220123CDE90076029515
:10548000FCF774F802208DF80F00204678210022E6
:105490000123CDE900760295FCF768F8A1208DF88C
:1054A0000F002046782100220123CDE900760295E5
:1054B000FCF75CF8C8208DF80F0020467821002208
:1054C0000123CDE900760295FCF750F8DA208DF83B
:1054D0000F002046782100220123CDE900760295B5
:1054E000FCF744F812208DF80F00204678210022A6
:1054F0000123CDE900760295FCF738F881208DF87C
:105500000F002046782100220123CDE90076029584
:10551000FCF72CF8CF208DF80F00204678210022D0
:105520000123CDE900760295FCF720F8D9208DF80B
:105530000F002046782100220123CDE90076029554
:10554000FCF714F8F1208DF80F0020467821002296
:105550000123CDE900760295FCF708F8DB208DF8F1
:105560000F002046782100220123CDE90076029524
:10557000FBF7FCFF20467821002201238DF80F80E5
:10558000CDE900760295FBF7F1FFA4208DF80F001E
:105590002046782100220123CDE900760295FBF711
:1055A000E5FFA6208DF80F00204678210022012378
:1055B000CDE900760295FBF7D9FFAF208DF80F00FB
:1055C0002046782100220123CDE900760295FBF7E1
:1055D000CDFFFFF76FFE04B0BDE8F0812DE9F04F7D
:1055E00087B00546A1F1500040F208248DF8140060
:1055F0004FF0010A05A8C2F200041E4617460491A6
:105600004FF06409CDE9000A2046782100220123E9
:10561000CDF80890FBF7AAFF280900F1100B0DF157
:105620001500CDE9000A20467821002201238DF8DB
:1056300015B0CDF80890FBF799FF0DF1160005F0B5
:105640000F08CDE9000A20467821002201238DF8B9
:105650001680CDF80890FBF789FF3001385C07EB26
:1056600006158DF81A000DF11A0620467821402201
:105670000123CDE9006ACDF80890FBF777FF687841
:1056800078218DF81A00204640220123CDE9006AD6
:10569000CDF80890FBF76AFFA87878218DF81A00FA
:1056A000204640220123CDE9006ACDF80890FBF79F
:1056B0005DFFE87878218DF81A002046402201230A
:1056C000CDE9006ACDF80890FBF750FF28797821E2
:1056D0008DF81A00204640220123CDE9006ACDF85A
:1056E0000890FBF743FF687978218DF81A0020466F
:1056F00040220123CDE9006ACDF80890FBF736FF80
:10570000A87978218DF81A00204640220123CDE99E
:10571000006ACDF80890FBF729FFE87978218DF829
:105720001A00204640220123CDE9006ACDF80890F6
:10573000FBF71CFF049878214F388DF817000DF106
:105740001700CDE9000A204600220123CDF8089079
:10575000FBF70CFF06A8CDE9000A204678210022BD
:1057600001238DF818B0CDF80890FBF7FFFE0DF17E
:105770001900CDE9000A20467821002201238DF886
:105780001980CDF80890FBF7F1FE287A0DF11B0681
:105790008DF81B002046782140220123CDE9006AC4
:1057A000CDF80890FBF7E2FE687A78218DF81B00AF
:1057B000204640220123CDE9006ACDF80890FBF78E
:1057C000D5FEA87A78218DF81B00204640220123BF
:1057D000CDE9006ACDF80890FBF7C8FEE87A782199
:1057E0008DF81B00204640220123CDE9006ACDF848
:1057F0000890FBF7BBFE287B78218DF81B00204624
:1058000040220123CDE9006ACDF80890FBF7AEFEF7
:10581000687B78218DF81B00204640220123CDE9CA
:10582000006ACDF80890FBF7A1FEA87B78218DF8DF
:105830001B00204640220123CDE9006ACDF80890E4
:10584000FBF794FEE87B78218DF81B002046402270
:105850000123CDE9006ACDF80890FBF787FE07B079
:10586000BDE8F08F2DE9F04F87B00546A1F150005B
:1058700040F208248DF814004FF0010A05A8C2F286
:1058800000041E46174604914FF06409CDE9000A52
:105890002046782100220123CDF80890FBF766FE10
:1058A000280900F1100B0DF11500CDE9000A204682
:1058B0007821002201238DF815B0CDF80890FBF770
:1058C00055FE0DF1160005F00F08CDE9000A20463F
:1058D0007821002201238DF81680CDF80890FBF77F
:1058E00045FE7001385C07EB46158DF81A000DF186
:1058F0001A062046782140220123CDE9006ACDF81E
:105900000890FBF733FE687878218DF81A0020465E
:1059100040220123CDE9006ACDF80890FBF726FE6E
:10592000A87878218DF81A00204640220123CDE97D
:10593000006ACDF80890FBF719FEE87878218DF819
:105940001A00204640220123CDE9006ACDF80890D4
:10595000FBF70CFE287978218DF81A0020464022AA
:105960000123CDE9006ACDF80890FBF7FFFD6879C7
:1059700078218DF81A00204640220123CDE9006AE3
:10598000CDF80890FBF7F2FDA87978218DF81A0080
:10599000204640220123CDE9006ACDF80890FBF7AC
:1059A000E5FDE87978218DF81A0020464022012390
:1059B000CDE9006ACDF80890FBF7D8FD287A782168
:1059C0008DF81A00204640220123CDE9006ACDF867
:1059D0000890FBF7CBFD687A78218DF81A002046F5
:1059E00040220123CDE9006ACDF80890FBF7BEFD07
:1059F000A87A78218DF81A00204640220123CDE9AB
:105A0000006ACDF80890FBF7B1FDE87A78218DF8AF
:105A10001A00204640220123CDE9006ACDF8089003
:105A2000FBF7A4FD287B78218DF81A002046402240
:105A30000123CDE9006ACDF80890FBF797FD687B5C
:105A400078218DF81A00204640220123CDE9006A12
:105A5000CDF80890FBF78AFDA87B78218DF81A0015
:105A6000204640220123CDE9006ACDF80890FBF7DB
:105A70007DFDE87B78218DF81A0020464022012325
:105A8000CDE9006ACDF80890FBF770FD0498782105
:105A90004F388DF817000DF11700CDE9000A2046A8
:105AA00000220123CDF80890FBF760FD06A8CDE9A0
:105AB000000A20467821002201238DF818B0CDF885
:105AC0000890FBF753FD0DF11900CDE9000A2046BF
:105AD0007821002201238DF81980CDF80890FBF77A
