:020000040800F2
:10000000D008002045010008510F0008530F0008D8
:10001000570F00085B0F00085F0F0008000000008A
:10002000000000000000000000000000630F000856
:10003000650F000800000000670F0008690F000846
:100040005F0100085F0100085F0100085F01000810
:100050005F0100085F0100085F0100085F01000800
:100060005F0100085F0100085F0100085F010008F0
:100070005F0100085F0100085F0100085F010008E0
:100080005F0100085F0100085F0100085F010008D0
:100090005F0100085F0100085F0100085F010008C0
:1000A0005F0100085F0100085F0100085F010008B0
:1000B0005F0100085F0100085F0100085F010008A0
:1000C0005F0100085F0100085F0100085F01000890
:1000D0005F0100085F0100085F0100085F01000880
:1000E0005F0100085F0100085F0100085F01000870
:1000F0005F0100085F0100085F0100085F01000860
:100100005F0100085F0100085F0100085F0100084F
:100110005F0100085F0100085F0100085F0100083F
:100120005F0100085F0100085F0100085F0100082F
:10013000DFF80CD001F09AF900480047210F0008C1
:10014000D00800200648804706480047FEE7FEE743
:10015000FEE7FEE7FEE7FEE7FEE7FEE7FEE7FEE777
:1001600045020008310100080CB500200190009004
:100170006B48006840F480306949086000BF6848F7
:10018000006800F4003000900198401C0190009835
:1001900018B90198B0F5A06FF1D16148006810F46A
:1001A000003F02D00120009001E000200090009864
:1001B000012842D15B48006840F0100059490860AE
:1001C0000846006820F0030008600846006840F018
:1001D000020008605248406851494860084640683B
:1001E00048600846406840F48060486008464068BF
:1001F00020F47C1048600846406840F4E8104860ED
:100200000846006840F08070086000BF44480068FD
:1002100010F0007FFAD04248406820F003004049C7
:1002200048600846406840F00200486000BF3C4813
:10023000406800F00C000828F9D10CBD10B5FFF79C
:1002400093FF10BD10B53648006840F001003449F6
:10025000086008464068344908403149486008460B
:100260000068324908402E4908600846006820F4BA
:10027000802008600846406820F4FE0048604FF483
:100280001F008860FFF7DAFF4FF000602849086020
:1002900010BD10B5002100200022214B5B6803F047
:1002A0000C0121B1042906D0082928D107E0214BEF
:1002B000214C236027E01F4B1F4C236023E0184B89
:1002C0005B6803F47010164B5B6803F48032022302
:1002D00003EB904022B9194B4343174C23600DE0C8
:1002E0000F4B5B6813F4003F04D0144B4343124C94
:1002F000236003E00F4B43430F4C236003E00D4B9F
:100300000D4C236000BF00BF054B5B68C3F30313B4
:100310000B4CE15C084B1B68CB40074C236010BDC5
:1003200000100240002002400000FFF8FFFFF6FE30
:1003300008ED00E000127A000000002000093D00F6
:100340000400002031490143314A1160704770B503
:10035000002100230F22C4780CB32D4C246804F430
:10036000E064C4F5E064210AC1F10403CA404478A2
:1003700004FA03F18478144021430901254C0678DE
:10038000A155047804F01F050124AC4005786D11D7
:100390004FF0E02606EB8505C5F8004109E004783A
:1003A00004F01F050124AC401B4D0678761145F87A
:1003B000264070BD194A0A400243154B1B1F1A60A4
:1003C000704739B1124A121D12680243104B1B1DAF
:1003D0001A6006E00E4A121D126882430C4B1B1D68
:1003E0001A607047042808D14FF0E021096941F0F4
:1003F00004014FF0E022116107E04FF0E0210969AC
:1004000021F004014FF0E022116170470000FA056D
:100410000CED00E000E400E080E100E080FFFF1F61
:1004200010B50446CA48844208D10121042000F0D6
:1004300029FD0021042000F025FD46E0C548844246
:1004400008D10121082000F01DFD0021082000F046
:1004500019FD3AE0C048844208D10121102000F083
:1004600011FD0021102000F00DFD2EE0BB4884425C
:1004700008D10121202000F005FD0021202000F0FE
:1004800001FD22E0B648844208D10121402000F05D
:10049000F9FC0021402000F0F5FC16E0B148844250
:1004A00008D10121802000F0EDFC0021802000F027
:1004B000E9FC0AE0AC48844207D10121801500F034
:1004C000E1FC0021A01500F0DDFC10BD10B50121FC
:1004D000084600F0D7FC0021012000F0D3FC10BD3D
:1004E0002DE9F041024600250026002000230024CB
:1004F000002791F803C00CF00F0591F803C01CF021
:10050000100F03D091F802C04CEA050591F800C025
:10051000BCF1000F31D0146800202BE04FF0010C2B
:100520000CFA00F3B1F800C00CEA03069E4220D199
:1005300083004FF00F0C0CFA03F7BC4305FA03FCE1
:100540004CEA040491F803C0BCF1280F06D14FF027
:10055000010C0CFA00FCC2F814C00AE091F803C0C8
:10056000BCF1480F05D14FF0010C0CFA00FCC2F8A9
:1005700010C0401C0828D1D31460B1F800C0BCF1F1
:10058000FF0F34DD546800202EE000F1080C4FF01E
:10059000010808FA0CF3B1F800C00CEA03069E4209
:1005A00021D183004FF00F0C0CFA03F7BC4305FA7E
:1005B00003FC4CEA040491F803C0BCF1280F05D1F8
:1005C00000F1080C08FA0CF8C2F8148091F803C086
:1005D000BCF1480F07D100F1080C4FF0010808FAF0
:1005E0000CF8C2F81080401C0828CED35460BDE837
:1005F000F0814FF6FF710180022181700421C170EA
:1006000070470246002093680B4201D0012000E0B1
:10061000002070470146886880B27047024600207B
:10062000D3680B4201D0012000E000207047014652
:10063000C86880B2704701617047416170470AB174
:10064000016100E041617047C16070474FF4803242
:100650000A438261816182618269826970470246D0
:100660000020424B18684FF68073184040EA021091
:1006700008433E4B186070473D49C8617047F0B56C
:100680000A46002300240021002500F00046B6F1B0
:10069000004F02D1354EF16901E0344E7168C0F36C
:1006A000034583B200F44016B6F5401F08D121F08F
:1006B00070612E4E766826F070662C4F7E6012E0D8
:1006C00000F48016B6F5801F06D1032606FA05F45D
:1006D000A14341F0706106E0460D360103FA06F6CB
:1006E000B14341F0706122B1460D360103FA06F6BE
:1006F000314300F00046B6F1004F02D11B4EF161CC
:1007000001E01A4E7160F0BD30B500228B071C0F5E
:100710000F2303FA04F2154B08338C1053F82430DE
:100720009343124C08348D1044F8253023468C1026
:1007300053F824308C07240F00FA04F423430B4CA5
:1007400008348D1044F8253030BD0A4908607047E0
:1007500000080140000C014000100140001401405D
:1007600000180140001C0140002001400000014031
:1007700000002042DC00204210B50446F7488442C5
:1007800009D10121480500F08AFB00214FF4001037
:1007900000F085FB08E00121880500F080FB0021C6
:1007A0004FF4800000F07BFB10BD2DE9F04385B0D5
:1007B00004460D460026B1460427DFF8A483A68828
:1007C0004FF6C0700640684600F0D5FADDF80880A4
:1007D000E448B8FBF0F01FFA80F946EA0906A68063
:1007E00020884FF6FE71084020800026DE492868E8
:1007F00088420CD828684000B8FBF0F087B2042F7C
:1008000000DA04273E4309F10100208427E0E8884C
:10081000A0F53F41FF3906D1286800EB4000B8FB46
:10082000F0F087B209E0286800EBC00101EB00108E
:10083000B8FBF0F087B247F480473805000D01D1CE
:1008400047F0010747F4004006434FF4967009FB58
:1008500000F04FF47A7190FBF1F0401C2084A683E5
:10086000208840F00100208026884FF6F5300640B1
:10087000A8886989084306432680A88929890843EE
:10088000208105B0BDE8F08341F28831016000218C
:1008900081804BF6FF71C1800021018141814FF4BD
:1008A00080418181704721B1028842F001020280BB
:1008B00004E002884FF6FE731A400280704721B1AF
:1008C000828842F40062828004E082884FF2FF73E3
:1008D0001A408280704721B1828842F4805282801F
:1008E00004E082884EF6FF731A408280704721B17F
:1008F000028842F48072028004E002884FF6FF63AF
:100900001A400280704721B1028842F400720280CE
:1009100004E002884FF6FF531A400280704721B16D
:10092000028842F48062028004E002884FF6FF33BE
:100930001A40028070470A46002181894FF60173F0
:10094000194002F0FE0319438181704721B1828969
:1009500042F00102828104E082894FF6FE731A4060
:100960008281704721B1028842F04002028004E097
:1009700002884FF6BF731A40028070471AB183880D
:100980000B43838002E083888B438380704701821E
:1009900070470146088AC0B2704712B141F00101A8
:1009A00002E04FF6FE7319400182704708B5024617
:1009B0000020009000920098084400900098008861
:1009C00008BD21B1028842F40042028003E002889F
:1009D000C2F30E0202807047B1F5006F04D10288A5
:1009E00042F40062028004E002884FF2FF731A4072
:1009F00002807047B1F5005F04D1028842F40052D2
:100A0000028004E002884DF6FF731A4002807047AE
:100A100021B1028842F48052028004E002884EF63E
:100A2000FF731A4002807047B1F5006F04D102884D
:100A300042F40062028004E002884FF2FF731A4021
:100A40000280704721B1028842F02002028004E057
:100A500002884FF6DF731A40028070470146088B08
:100A60000012704721B1028842F01002028004E0B7
:100A700002884FF6EF731A400280704721B902884E
:100A800042F08002028004E002884FF67F731A4031
:100A900002807047B1F5804F05D0828B4BF6FF7313
:100AA0001A40828303E0828B42F480428283704743
:100AB00070B502460024002500230020958A138B80
:100AC0001B0445EA030626F07F4404EA01068E4231
:100AD00001D1012000E0002070BD10B501460020CA
:100AE000002300228B8A0A8B120443EA020424F0BA
:100AF0007F4010BD0CB502460020002301930093F7
:100B000000920B0F019321F07F41019B1BB1009BD1
:100B10001433009303E0090C009B18330093009BEF
:100B20001B680B4201D0012000E000200CBD002218
:100B300021F07F42D3438382704730B502460020C4
:100B40000023948801F0E06504EA154321F07F4119
:100B5000948A0C420AD04BB1012008E000540040B6
:100B600000127A0040420F00A0860100002030BD34
:100B7000002221F07F42D34383827047DD48006822
:100B800040F00100DB49086008464068DA49084047
:100B9000D849486008460068D8490840D5490860E7
:100BA0000846006820F4802008600846406820F469
:100BB000FE0048604FF41F0088607047CD49096807
:100BC00021F48031CB4A11601146096821F480215B
:100BD0001160B0F5803F03D0B0F5802F0ED106E054
:100BE000C449096841F48031C24A116007E0C14933
:100BF000096841F4A021BF4A116000E000BF00BFB6
:100C0000704710B501460022002300204A11012A36
:100C100002D1B84C236806E0022A02D1B54C236AFF
:100C200001E0B44C636A01F01F02012494401C42AD
:100C300001D0012000E0002010BD38B50020009058
:100C40000024002500BF3120FFF7DBFF0546009898
:100C5000401C00900098B0F5A06F01D0002DF2D09C
:100C60003120FFF7CEFF08B1012400E00024204628
:100C700038BD014600209F4A106820F0F80040EA85
:100C8000C100106070479E4908607047024600200E
:100C9000984B586820F47C1042EA01031843954BA6
:100CA0005860704796490866704701460020914A8F
:100CB000506820F003000843506070478D4840683A
:100CC00000F00C007047014600208A4A506820F06E
:100CD000F00008435060704701460020854A506884
:100CE00020F4E06008435060704701460020814ACC
:100CF000506820F4605040EAC1005060704729B14C
:100D00007C4A527A02437B4B5A7204E0794A527A07
:100D10008243784B5A7270477A490860704701469F
:100D20000020744A506820F44040084350607047E7
:100D30000021754A11706F4A82F82010012802D0F4
:100D4000042808D103E001216F4A117004E0052155
:100D50006D4A117000E000BF00BF70476B4908602A
:100D600070476449096A0143624A116270476749E2
:100D700044390860704730B5002100220024002368
:100D80005C4D6D6805F00C0121B1042905D00829DE
:100D900023D105E05E4D056022E05D4D05601FE05A
:100DA000544D6D6805F47012524D6D6805F4803431
:100DB000022505EB92421CB9564D554305600BE0E8
:100DC0004C4D6D6815F4003F03D0524D55430560FE
:100DD00002E04F4D5543056002E04D4D056000BFF8
:100DE00000BF444D6D6805F0F00109094A4D6B5C88
:100DF0000568DD4045603F4D6D6805F4E061090A16
:100E0000454D6B5C4568DD4085603A4D6D6805F485
:100E10006051C90A404D6B5C4568DD40C560354D89
:100E20006D6805F44041890B3C4D6B5CC568B5FBB2
:100E3000F3F5056130BD29B12E4A526902432D4BAD
:100E40005A6104E02B4A526982432A4B5A61704727
:100E500029B1284A92690243264B9A6104E0254A47
:100E600092698243234B9A61704729B1214AD26922
:100E70000243204BDA6104E01E4AD26982431D4BD3
:100E8000DA61704729B11B4AD2680243194BDA6014
:100E900004E0184AD2688243164BDA60704729B1E1
:100EA000144A12690243134B1A6104E0114A126991
:100EB0008243104B1A6170471449403908607047EB
:100EC0000F49C86470470B49C87170470948406AA8
:100ED00040F0807007494862704701460020054A8B
:100EE00092680A4201D0012000E0002070470149C9
:100EF00088727047001002400000FFF8FFFFF6FE06
:100F000000004242D8004242201002408004424287
:100F100000127A0000093D00140000202400002087
:100F200008B500F02FFA00F021F800F0A3F80CE06B
:100F300000F02AF905480823802200210090084685
:100F400000F0D7F9032000F07CFAF1E7C800002098
:100F5000704700BFFEE700BFFEE700BFFEE700BF2F
:100F6000FEE77047704770477047000000B585B0D6
:100F700001214805FFF779FF01210820FFF768FFED
:100F8000C020ADF8000003208DF802001C208DF871
:100F900003006946F348FFF7A3FAF348FFF7ECFBB9
:100FA0000020ADF808004BF6FF70ADF80A003020C5
:100FB000ADF80C004FF48060ADF80E000001ADF804
:100FC0001000EA4801900121E748FFF76CFC01A9F5
:100FD000E548FFF7EAFB05B000BD70B504460D46D5
:100FE00000BF4FF40031E048FFF784FD0028F8D13E
:100FF0000121DD48FFF77BFC00BFDD49DA48FFF740
:1010000057FD0028F9D000227821D748FFF7C5FC0A
:1010100000BFD849D448FFF74BFD0028F9D021463E
:10102000D148FFF7B4FC00BFD249891CCE48FFF776
:101030003FFD0028F8D02946CB48FFF7A8FC00BFA9
:10104000CC49891CC848FFF733FD0028F8D001219E
:10105000C548FFF758FC70BD10B504462146002076
:10106000FFF7BBFF10BD10B5044621464020FFF737
:10107000B4FF10BD10B5642000F0C0F9AE20FFF73A
:10108000EBFF2020FFF7E8FF1020FFF7E5FFB0207F
:10109000FFF7E2FFC820FFF7DFFF0020FFF7DCFFCC
:1010A0001020FFF7D9FF4020FFF7D6FF8120FFF780
:1010B000D3FFFF20FFF7D0FFA120FFF7CDFFA62031
:1010C000FFF7CAFFA820FFF7C7FF3F20FFF7C4FFC5
:1010D000A420FFF7C1FFD320FFF7BEFF0020FFF7DA
:1010E000BBFFD520FFF7B8FFF020FFF7B5FFD920F1
:1010F000FFF7B2FF2220FFF7AFFFDA20FFF7ACFFC8
:101100001220FFF7A9FFDB20FFF7A6FF2020FFF743
:10111000A3FF8D20FFF7A0FF1420FFF79DFFAF2056
:10112000FFF79AFF10BD70B504460D4605F1B001FA
:10113000C8B2FFF791FF102141EA1410FFF78CFFAE
:1011400004F00F0141F00100FFF786FF70BD70B59C
:101150000646002415E004F1B001C8B2FFF77CFF99
:101160000020FFF779FF1020FFF776FF002504E04D
:101170003046FFF778FF681CC5B2802DF8DB601C95
:10118000C4B2082CE7DB70BD10B50020FFF7DFFF0D
:1011900010BD10B58D20FFF75FFF1420FFF75CFF37
:1011A000AF20FFF759FF10BD10B58D20FFF754FF9A
:1011B0001020FFF751FFAE20FFF74EFF10BD2DE9C5
:1011C000F0470646894617469A464FF00008002425
:1011D0000025BAF1010F03D0BAF1020F5ED125E06C
:1011E00020E0785D203800F0FF087E2E04DD002628
:1011F00009F1010000F0FF0949463046FFF793FF6F
:10120000002409E008EB48015B4A02EB4101085D5C
:10121000FFF729FF601CC4B2062CF3DBB01DC6B279
:10122000681CC5B2785D0028DBD137E032E0785D1C
:10123000203800F0FF08782E04DD002609F10100B7
:1012400000F0FF0949463046FFF76DFF002407E034
:1012500004EB0811494A505CFFF705FF601CC4B25B
:10126000082CF5DB09F10100C1B23046FFF75BFF46
:10127000002408E004EB08110831404A505CFFF7F5
:10128000F2FE601CC4B2082CF4DB06F10800C6B202
:10129000681CC5B2785D0028C9D100BF00BFBDE899
:1012A000F0872DE9F04180460E46174600247D0167
:1012B00031464046FFF737FF00BF06E03049485D42
:1012C000FFF7D1FE6D1C601CC4B2102CF6DB701C45
:1012D000C1B24046FFF727FF002406E02849485DD9
:1012E000FFF7C1FE6D1C601CC4B2102CF6DBBDE81C
:1012F000F0812DE9F05F06460F4690461C46DDF86A
:1013000028A04FF0000BE11704EB5171C910B4EBAA
:10131000C10105D12046E11704EB5171CD1005E064
:101320002046E11704EB5171C9104D1C3D4614E0F5
:1013300029463046FFF7F7FEB1460AE059460BF161
:10134000010B1AF80100FFF78EFE09F1010000F011
:10135000FF09C145F2DB681CC5B2A542E8DBBDE868
:10136000F09F0000000C014000540040801A06006D
:1013700001000300820007000A1500083217000868
:101380002800002010B56FF00400FFF72BF8334859
:1013900000683349B0FBF1F0324908700846007824
:1013A00000EB4001C1EBC0104FF6FF7101EAC00035
:1013B0002D49088010BD01462A4A12784A434FF051
:1013C000E0235A6100229A611A46126942F0010232
:1013D0001A6100BF4FF0E022106910F0010F02D037
:1013E00010F4803FF6D04FF0E022126922F00102A3
:1013F0004FF0E0231A6100229A61704701461A4AB1
:1014000012884A434FF0E0235A6100229A611A463B
:10141000126942F001021A6100BF4FF0E022106928
:1014200010F0010F02D010F4803FF6D04FF0E02210
:10143000126922F001024FF0E0231A6100229A6142
:10144000704730B50446002505E04FF47A70FFF789
:10145000D5FF681CC5B2A542F7D330BD00000020FF
:1014600000127A00C8040020CA040020064C074D70
:1014700006E0E06840F0010394E807009847103464
:10148000AC42F6D3FEF758FE241D0008441D0008A8
:1014900070B501EB020410F8015B15F0070301D1F0
:1014A00010F8013B2A1106D110F8012B03E010F8C7
:1014B000016B01F8016B5B1EF9D12B0705D40023EA
:1014C000521E0FD401F8013BFAE710F8013B02F17C
:1014D0000202A1EB030303E013F8015B01F8015BD7
:1014E000521EF9D5A142D6D3002070BD02E008C833
:1014F000121F08C1002AFAD170477047002001E08E
:1015000001C1121F002AFBD170470000000000003B
:101510000000002F000000000700070000147F14E7
:101520007F1400242A7F2A120062640813230036E5
:101530004955225000000503000000001C22410014
:10154000000041221C000014083E08140008083E58
:101550000808000000A06000000808080808000053
:1015600060600000002010080402003E5149453E22
:101570000000427F40000042615149460021414540
:101580004B31001814127F10002745454539003CA7
:101590004A49493000017109050300364949493675
:1015A00000064949291E0000363600000000563664
:1015B0000000000814224100001414141414000048
:1015C0004122140800020151090600324959513ED6
:1015D000007C1211127C007F49494936003E41418E
:1015E0004122007F4141221C007F49494941007F3F
:1015F00009090901003E4149497A007F0808087F2E
:101600000000417F4100002040413F01007F08145D
:101610002241007F40404040007F020C027F007F5B
:101620000408107F003E4141413E007F0909090640
:10163000003E4151215E007F091929460046494973
:1016400049310001017F0101003F4040403F001F40
:101650002040201F003F4038403F006314081463BF
:1016600000070870080700615149454300007F41A9
:10167000410000552A552A55000041417F000004D1
:10168000020102040040404040400000010204000A
:10169000002054545478007F48444438003844446F
:1016A000442000384444487F0038545454180008FB
:1016B0007E0901020018A4A4A47C007F0804047819
:1016C0000000447D4000004080847D00007F1028A1
:1016D00044000000417F4000007C04180478007C36
:1016E0000804047800384444443800FC24242418B6
:1016F0000018242418FC007C0804040800485454F2
:10170000542000043F444020003C4040207C001C0A
:101710002040201C003C4030403C0044281028441D
:10172000001CA0A0A07C004464544C441414141465
:101730001414000000000000000000000000000081
:101740000000000000F8000000000000003330003E
:10175000000000100C06100C060000000000000045
:10176000000040C07840C0784000043F04043F04BB
:101770000400007088FC08300000001820FF211EC3
:101780000000F008F000E018000000211C031E21FA
:101790001E0000F00888700000001E212324192775
:1017A000211010160E0000000000000000000000D4
:1017B0000000000000E018040200000000071820EC
:1017C000400000020418E00000000040201807005C
:1017D0000000404080F0804040000202010F010202
:1017E0000200000000F0000000000101011F0101E3
:1017F0000100000000000000000080B07000000048
:1018000000000000000000000000000101010101D3
:101810000101000000000000000000303000000066
:10182000000000000000806018040060180601003D
:10183000000000E010080810E000000F1020201049
:101840000F00001010F8000000000020203F2020B2
:101850000000007008080888700000302824222149
:1018600030000030088888483000001820202011FF
:101870000E000000C02010F8000000070424243FE0
:10188000240000F808888808080000192120201189
:101890000E0000E0108888180000000F11202011B1
:1018A0000E0000380808C83808000000003F00009B
:1018B00000000070880808887000001C2221212286
:1018C0001C0000E010080810E00000003122221186
:1018D0000F00000000C0C000000000000030300019
:1018E0000000000000800000000000008060000098
:1018F00000000000804020100800000102040810D1
:1019000020004040404040404000040404040404DF
:10191000040000081020408000000020100804028D
:101920000100007048080808F0000000003036018F
:101930000000C030C828E810E0000718272423144E
:101940000B000000C038E0000000203C230202270A
:10195000382008F8888888700000203F2020201157
:101960000E00C03008080808380007182020201092
:10197000080008F808080810E000203F2020201088
:101980000F0008F88888E8081000203F2020232056
:10199000180008F88888E8081000203F200003009D
:1019A0000000C03008080838000007182020221E58
:1019B000020008F808000008F808203F2101012172
:1019C0003F20000808F8080800000020203F2020E1
:1019D000000000000808F8080800C08080807F0030
:1019E000000008F888C028180800203F2001263889
:1019F000200008F8080000000000203F20202020E0
:101A0000300008F8F800F8F80800203F003F003FD9
:101A1000200008F830C00008F808203F2000071810
:101A20003F00E01008080810E0000F1020202010F0
:101A30000F0008F808080808F000203F2101010104
:101A40000000E01008080810E0000F1824243850A7
:101A50004F0008F8888888887000203F2000030C19
:101A60003020007088080808380000382021212222
:101A70001C00180808F8080818000000203F200083
:101A8000000008F808000008F808001F20202020A7
:101A90001F000878880000C83808000007380E01C9
:101AA0000000F80800F80008F800033C0700073CB5
:101AB0000300081868808068180820302C03032C65
:101AC00030200838C800C83808000000203F200037
:101AD000000010080808C8380800203826212020F7
:101AE0001800000000FE020202000000007F4040DB
:101AF0004000000C30C0000000000000000106386B
:101B0000C00000020202FE000000004040407F00D2
:101B100000000000040202020400000000000000B7
:101B200000000000000000000000808080808080B5
:101B3000808000020204000000000000000000009D
:101B400000000000808080800000001924222222F2
:101B50003F2008F8008080000000003F1120201185
:101B60000E000000008080800000000E1120202068
:101B70001100000000808088F800000E1120201065
:101B80003F200000808080800000001F222222224F
:101B90001300008080F0888888180020203F2020D3
:101BA00000000000808080808000006B94949493FB
:101BB000600008F8008080800000203F21000020A5
:101BC0003F2000809898000000000020203F202047
:101BD0000000000000809898000000C08080807F96
:101BE000000008F8000080808000203F24022D3093
:101BF0002000000808F8000000000020203F2020FE
:101C000000008080808080808000203F20003F2076
:101C1000003F8080008080800000203F2100002065
:101C20003F200000808080800000001F20202020B6
:101C30001F00808000808000000080FFA120201114
:101C40000E000000008080808000000E112020A087
:101C5000FF80808080008080800020203F21200045
:101C60000100000080808080800000332424242430
:101C70001900008080E0808000000000001F20200C
:101C800000008080000000808000001F20202010C5
:101C90003F20808080000080808000010E30080698
:101CA000010080800080008080800F300C030C30A9
:101CB0000F0000808000808080000020312E0E31D7
:101CC0002000808080000080808080818E701806D7
:101CD000010000808080808080000021302C222143
:101CE000300000000000807C020200000000003F85
:101CF000404000000000FF00000000000000FF0066
:101D000000000002027C800000000040403F000014
:101D100000000006010102020404000000000000AF
:101D200000000000441D000800000020CC0400005A
:101D300090140008081F0008CC04002004040000D0
:101D4000FC1400081184A24A046809010203040675
:101D50000708090C69101502040608200F0202FA90
:101D6000FAAAAAFFFFAAAAFAFA0202100F42727296
:101D70003A7A424B5B5262621377661016203C1C23
:101D8000FFFFB0B424243F3FE4E4242420020203F4
:101D9000FFFF300B01051D59C1FF7F010101500CF0
:101DA000F8F8484C4F4B4A4848F8F84CFFFF4401BC
:101DB0001929112C202424381009243010FFFF1079
:101DC000F0F01010081C1F0B0C0D4F6E341C0F236D
:101DD000607F3F180880C060F8FF07023546E0705A
:101DE0003C1C08200D7F7F0406033F7F4040407865
:101DF00078100A03050911FF118905C312E012F0DA
:101E0000496221073D4428FF11AA44700B83013821
:101E1000448292927401831E7C44C7017D0199051E
:101E200019C1419A01028139FB013C69419949FA82
:101E30000101A12A4001212A6D01212A60017915A1
:101E400001642ADB010915072ADA01212AD80121B8
:101E50002AC0010915072A800101352A060109183F
:101E6000071CE66620076A86157A861C2A860118F2
:101E70000A80808686068686C0C00C0E1C0606D0A8
:101E800030764D2907013113601C12FE1301021038
:101E900009C41820029E63B20E1DFF8181FFF24427
:101EA00040300F12FF180923EAAABFAAEA033F0B2A
:101EB000012DBC808080080115240E0C082A010128
:101EC0003149041D81808081021901B91706110171
:101ED00001090C0E0A14C0012178081E214040504F
:101EE000215E08012A4DFFFFC1C10409232D4815B9
:101EF00080FCF3EFF3FC80FF80EEEEEEF5FBFF9C41
:081F0000BEB6B6883A000000ED
:0400000508000131BD
:00000001FF
