:020000040800F2
:100000001006002049010008AD100008AF100008DC
:10001000B1100008B3100008B5100008000000007F
:10002000000000000000000000000000B710000801
:10003000B910000800000000BB100008BD10000847
:100040006301000863010008630100086301000800
:1000500063010008630100086301000863010008F0
:1000600063010008630100086301000863010008E0
:1000700063010008630100086301000863010008D0
:1000800063010008630100086301000863010008C0
:1000900063010008630100086301000863010008B0
:1000A00063010008630100086301000863010008A0
:1000B0006301000863010008630100086301000890
:1000C0006301000863010008630100086301000880
:1000D0006301000863010008630100086301000870
:1000E0006301000863010008630100086301000860
:1000F0006301000863010008630100086301000850
:10010000630100086301000863010008630100083F
:10011000630100086301000863010008630100082F
:10012000630100086301000863010008630100081F
:10013000DFF810D001F004FA004800470B0E000869
:10014000AFF30080100600200648804706480047AD
:10015000FEE7FEE7FEE7FEE7FEE7FEE7FEE7FEE777
:10016000FEE7FEE715020008310100080CB5002289
:10017000019200925248016841F4803101604FF4CD
:10018000A063016801F4003100910199491C0191BB
:10019000009911B901999942F3D10168890302D5F7
:1001A0000121009100E000920099012930D14549D8
:1001B0000A6842F010020A600A6822F003020A602C
:1001C0000A6842F002020A60416841604168416089
:1001D000416841F480614160416821F47C114160D3
:1001E000416841F4E8114160016841F080710160AB
:1001F00001688901FCD5416821F003014160416833
:1002000041F0020141604168C1F381010229FAD144
:100210000CBDABE710B52A48016841F0010101604F
:100220004168294A114041600168284A1140016033
:10023000016821F480210160416821F4FE014160E0
:100240004FF41F018160FFF7E4FF21494FF0006088
:10025000086010BD10B51A4A506800F00C011D4B23
:100260001D4800290ED004290ED008290ED00360A5
:100270005168194AC1F30311121D515C0268CA404A
:10028000026010BD0360F3E70360F1E7516801F419
:100290007011536803F48033022404EB914133B1AD
:1002A00053689B0307D50D4B59430160E0E70B4BA7
:1002B00059430160DCE7074B59430160D8E7000070
:1002C00000100240002002400000FFF8FFFFF6FE91
:1002D00008ED00E000127A000000002000093D0057
:1002E0002A4908432A490860704770B50F23C2782D
:1002F00001260178002A1ED0254A126802F4E06225
:10030000C2F5E062120AC2F10404D3404578A54068
:1003100082781A402A43120101F1E02181F8002479
:10032000007800F01F018E404009800000F1E020BD
:10033000C0F8006170BD01F01F00864048098000D0
:1003400000F1E020C0F8806170BD124A1140014305
:100350000F48001F016070470D4A121D002903D08D
:100360001168014311607047116881431160704743
:100370004FF0E021042804D0086920F0040008614F
:100380007047086940F00400086170470000FA05F2
:100390000CED00E080FFFF1F10B59C49884209D199
:1003A0000121042000F045FC0021BDE8104004209C
:1003B00000F03FBC9649884209D10121082000F095
:1003C00038FC0021BDE81040082000F032BC914903
:1003D000884209D10121102000F02BFC0021BDE84A
:1003E0001040102000F025BC8B49884209D1012122
:1003F000202000F01EFC0021BDE81040202000F06D
:1004000018BC8649884209D10121402000F011FC26
:100410000021BDE81040402000F00BBC804988421C
:1004200009D10121802000F004FC0021BDE810402A
:10043000802000F0FEBB7B4988420AD1841501214F
:10044000204600F0F6FB2046BDE81040002100F0F9
:10045000F0BB10BD10B50121084600F0EAFB0021F9
:10046000BDE81040012000F0E4BB2DE9F04100227E
:10047000CC7804F00F03E40601D58C7823430C7884
:100480004FF00F0714F0FF0F4FF0010C1CD0056860
:100490000CFA02F40E882640A64211D1960007FA03
:1004A00006F825EA080503FA06F848EA0505CE78B5
:1004B000282E02D0482E02D002E0446100E0046100
:1004C000521C082AE4D305600A88FF2A1ED9456811
:1004D000002202F108060CFA06F40E882640A64215
:1004E00010D1960007FA06F825EA080503FA06F87F
:1004F00048EA0505CE78282E00D14461CE78482EF2
:1005000000D10461521C082AE3D34560BDE8F081A4
:100510004FF6FF710180022181700421C170704784
:100520000246002092680A4200D00120704780688D
:1005300080B2704702460020D2680A4200D00120F3
:100540007047C06880B27047016170474161704771
:10055000002A01D00161704741617047C160704756
:1005600041F4803282618161826181698069704772
:1005700010B52D4B1A684FF68074224042EA0010E5
:100580000843186010BD2949C8617047F0B5264C72
:10059000002801DAE36900E06368C0F30346420D16
:1005A000120185B2C0F301579540032F07D0C20254
:1005B0000CD50322B240934343F0706209E023F06C
:1005C0007062636823F07063636002E0AB4343F0E2
:1005D000706201B12A43002801DAE261F0BD626075
:1005E000F0BD10B58A07120F0F23934021F00304CA
:1005F0000D4921448C689C438C608B689040034378
:100600008B6010BD0949DC3108607047000801406B
:10061000000C01400010014000140140001801408E
:10062000001C014000200140000001400000204269
:1006300010B5E04988420AD101214C05204600F05E
:1006400003FB2046BDE81040002100F0FDBA012167
:100650008C05204600F0F8FA2046BDE81040002145
:1006600000F0F2BA70B586B004460D46A08820F0BE
:100670003F0601A800F06FFA0398CF49B0FBF1F1F3
:1006800089B20E43A680228822F001022280CB4B41
:100690002A689A4209D85200B0FBF2F080B20428CE
:1006A00000D20420491C218423E0EB88A3F53F46B7
:1006B000FF3E0BD002EBC20303EB0212B0FBF2F0E1
:1006C00080B240F48040020506D007E002EB42020F
:1006D000B0FBF2F080B2F6E740F0010040F40040D9
:1006E0004FF4967251434FF47A72B1FBF2F1491C08
:1006F0002184A083208840F00100208020884FF6CC
:10070000F5310840A9886A89114301432180A889ED
:1007100029890843208106B070BD41F2883101600B
:10072000002181804BF6FF72C280018141814FF42C
:10073000804181817047002904D0018841F0010186
:1007400001807047018821F0010101807047002974
:1007500004D0818841F4006181807047818821F450
:10076000006181807047002904D0818841F4805164
:1007700081807047818821F48051818070470029F1
:1007800004D0018841F4807101807047018821F410
:10079000807101807047002904D0018841F4007104
:1007A00001807047018821F40071018070470029A1
:1007B00004D0018841F4806101807047018821F4F0
:1007C000806101807047828922F0FE0201F0FE0103
:1007D000114381817047002904D0818941F00101D2
:1007E00081817047818921F0010181817047002951
:1007F00004D0018841F0400101807047018821F058
:10080000400101807047002A03D082880A43828019
:10081000704782888A438280704701827047008ACD
:10082000C0B27047002A02D041F0010101E001F09E
:10083000FE010182704708B50090009808440090BE
:100840000098008808BD002904D0018841F40041C7
:10085000018070470188C1F30E0101807047B1F536
:10086000006F04D0018821F4006101807047018885
:1008700041F4006101807047B1F5005F04D0018848
:1008800021F4005101807047018841F4005101803A
:100890007047002904D0018841F4805101807047DD
:1008A000018821F4805101807047B1F5006F04D0B8
:1008B000018821F4006101807047018841F40061E2
:1008C00001807047002904D0018841F02001018097
:1008D0007047018821F0200101807047008B000AD9
:1008E0007047002904D0018841F010010180704751
:1008F000018821F0100101807047002904D001888F
:1009000021F0800101807047018841F08001018061
:100910007047B1F5804F04D0818B21F480418183F1
:100920007047818B41F480418183704703460020EA
:100930009A8A1B8B1B041A4322F07F42914300D1F9
:1009400001207047818A008B0004014321F07F4021
:1009500070470CB50246002000920A0F019221F068
:100960007F41019A002A03D0009A1432009203E0DA
:10097000090C009A18320092009A12680A4200D0BC
:1009800001200CBDC9438182704710B5024600208A
:10099000938801F0E06403EA144321F07F41928AD6
:1009A0000A4202D0002B00D0012010BDC943818231
:1009B000704700000054004040420F00A086010034
:1009C000B448016841F0010101604168B24A114038
:1009D00041600168B14A11400160016821F4802141
:1009E0000160416821F4FE0141604FF41F01816004
:1009F0007047A8490A6822F480320A600A6822F423
:100A000080220A60B0F5803F07D0B0F5802F03D177
:100A1000086840F4A02008607047086840F48030FF
:100A2000086070470346002059099A4A01290AD0F4
:100A300002290AD0516A03F01F02012393400B429E
:100A400000D0012070471168F5E7116AF3E718B587
:100A5000002000904FF4A0643120FFF7E3FF0099DD
:100A6000491C00910099A14201D00028F4D0312006
:100A7000FFF7D8FF08B1012018BD002018BD854A36
:100A8000116821F0F80141EAC00010607047844904
:100A9000086070477F4B5A6822F47C120843104369
:100AA000586070477E49086670477A4A516821F05D
:100AB00003010143516070477648406800F00C0024
:100AC0007047744A516821F0F0010143516070474A
:100AD000704A516821F4E0610143516070476D4AEA
:100AE000516821F4605141EAC00050607047694A82
:100AF000002903D0517A014351727047517A8143E2
:100B0000517270476649D83108607047614A516830
:100B100021F440410143516070475E490022203179
:100B20000A7001F82029012805D0042802D10520E7
:100B300081F820007047012081F820007047594952
:100B40000860704753490A6A02430A627047554970
:100B500044390860704710B54E4A516801F00C01E5
:100B6000514B002927D0042927D0082927D003601A
:100B7000516801F0F00109094C4B5C5C0168E140EF
:100B80004160546804F4E064240A1C5D21FA04F412
:100B90008460546804F46054E40A1B5DD940C16069
:100BA000526802F44042920B404B1B1F9A5CB1FB0F
:100BB000F2F1016110BD0360DAE70360D8E7516824
:100BC00001F47011536803F48033022404EB914163
:100BD00033B153689B0307D5354B59430160C7E7D1
:100BE000334B59430160C3E72F4B59430160BFE7C3
:100BF000284A002903D05169014351617047516966
:100C0000814351617047234A002903D09169014310
:100C10009161704791698143916170471D4A002934
:100C200003D0D1690143D1617047D1698143D1615A
:100C30007047184A002903D0D1680143D16070473A
:100C4000D1688143D1607047124A002903D01169ED
:100C50000143116170471169814311617047114966
:100C60004039086070470E49C86470470949C87127
:100C700070470848416A41F08071416270470146FF
:100C80000020044A92680A4200D0012070470149BE
:100C900088727047001002400000FFF8FFFFF6FE68
:100CA000000042428004424200127A0018000020F4
:100CB00000093D0010B50A280CD2DFE800F0050C51
:100CC000131A21282F363D440223E0A200215A2086
:100CD00000F011FB10BD0223DDA200215A2000F01C
:100CE0000AFB10BD0223DBA200215A2000F003FB07
:100CF00010BD0223D8A200215A2000F0FCFA10BD3A
:100D00000223D6A200215A2000F0F5FA10BD0223DA
:100D1000D3A200215A2000F0EEFA10BD0223D1A286
:100D200000215A2000F0E7FA10BD0223CEA20021D4
:100D30005A2000F0E0FA10BD0223CCA200215A2074
:100D400000F0D9FA10BD0223C9A200215A2000F0F8
:100D5000D2FA10BD10B532283BD017DC14282AD0A7
:100D600009DC08B30A2805D10223C2A219465A2079
:100D700000F0C1FA10BD1E2824D02828FAD1022381
:100D8000BDA219465A2000F0B6FA10BD3C2827D063
:100D900046282CD0502831D05A28F6D10223B7A2A9
:100DA000194600F0A8FA10BD0223A8A219465A203D
:100DB00000F0A1FA10BD0223B1A219465A2000F09A
:100DC0009AFA10BD0223AFA219465A2000F093FAF6
:100DD00010BD0223ACA219465A2000F08CFA10BDB7
:100DE0000223AAA219465A2000F085FA10BD022358
:100DF000A7A219465A2000F07EFA10BD0223A5A230
:100E000019465A2000F077FA10BD00240027092562
:100E10001E2600F025FB00F053F900F0CEF900F09B
:100E200079FB00F050FA00221146142000F0C4FAB9
:100E300001220021242000F0BFFA022200213420E8
:100E400000F0BAFA03220021442000F0B5FA022390
:100E500087A200215A2000F04EFA0022022114201D
:100E600000F0AAFA01220221242000F0A5FA0422AF
:100E70000221342000F0A0FA05220221442000F0D3
:100E80009BFA02237FA219465A2000F034FA00226E
:100E90000421142000F090FA01220421242000F003
:100EA0008BFA06220421342000F086FA072204215E
:100EB000442000F081FA022377A204215A2000F096
:100EC0001AFA08220621142000F076FA09220621D7
:100ED000242000F071FA0A220621342000F06CFA76
:100EE0000B220621442000F067FA02236CA206219F
:100EF0005A2000F000FA00210C22084600F05CFAAB
:100F0000DFF8A48102214046FFF70AFB88BB0A20D4
:100F100000F0D4FA02214046FFF702FB48BB022151
:100F20004046FFF7FDFA0028F9D06FB9E1B20E2272
:100F3000002000F041FAA41E002C00DA0624E1B2E1
:100F40000C22002000F038FA012F07D134B96D1CB3
:100F5000092D00DD09252846FFF7ACFE012F08D139
:100F6000022C06D10A365A2E00DD5A263046FFF7EB
:100F7000F1FE04214046FFF7D3FA88BB0A2000F0B7
:100F80009DFA04214046FFF7CBFA48BB04214046B6
:100F9000FFF7C6FA0028F9D06FB9E1B20E2200209F
:100FA00000F00AFAA41C062C00DD0024E1B20C2299
:100FB000002000F001FA012F07D134B96D1E012D78
:100FC00000DA01252846FFF775FE012F08D1022C13
:100FD00006D10A3E0A2E00DA0A263046FFF7BAFE8C
:100FE00008214046FFF79CFA98B90A2000F066FAFB
:100FF00008214046FFF794FA58B908214046FFF708
:101000008FFA0028F9D0E1B20D22002000F0D4F9C7
:10101000012710214046FFF783FA00287FF472AFC2
:101020000A2000F04BFA10214046FFF779FA002819
:10103000F4D110214046FFF773FA0028F9D0E1B24D
:101040000C22002000F0B8F900275BE73000000018
:1010500031000000320000003300000034000000C6
:1010600035000000360000003700000038000000A6
:101070003900000031300000343000003930000009
:1010800032300000333000003530000036300000D0
:1010900037300000383000003132333400000000B7
:1010A00056332E3100000000000801407047FEE773
:1010B000FEE7FEE7FEE770477047704770470000A5
:1010C00010B586B001214805FFF7A8FD01210820D1
:1010D000FFF799FDC020ADF8040003208DF806004D
:1010E0001C208DF8070001A9D548FFF7BEF9D54CA3
:1010F0002046FFF79DFA0021ADF80C104BF6FF716A
:10110000ADF80E103021ADF810102115ADF8121009
:101110000901ADF81410CC49029101212046FFF7D6
:101120000AFB02A92046FFF79DFA06B010BD2DE983
:10113000F04104460E46C34D4FF400373946284669
:10114000FFF707FC0028F9D101212846FFF717FB1C
:10115000BE4F28463946FFF7E9FB0028F9D00022A8
:1011600078212846FFF75EFBB94F28463946FFF73E
:10117000DDFB0028F9D021462846FFF74EFBB44C92
:10118000A41C21462846FFF7D1FB0028F9D03146A0
:101190002846FFF742FB21462846FFF7C7FB0028F9
:1011A000F9D02846BDE8F0410121FFF7F4BA014625
:1011B0000020BCE701464020B9E710B5642000F0EC
:1011C0007DF9AE20FFF7F3FF2020FFF7F0FF10209E
:1011D000FFF7EDFFB020FFF7EAFFC820FFF7E7FFBA
:1011E0000020FFF7E4FF1020FFF7E1FF4020FFF7AA
:1011F000DEFF8120FFF7DBFFFF20FFF7D8FFA120F4
:10120000FFF7D5FFA620FFF7D2FFA820FFF7CFFFFB
:101210003F20FFF7CCFFA420FFF7C9FFD320FFF743
:10122000C6FF0020FFF7C3FFD520FFF7C0FFF02067
:10123000FFF7BDFFD920FFF7BAFF2220FFF7B7FF66
:10124000DA20FFF7B4FF1220FFF7B1FFDB20FFF732
:10125000AEFF2020FFF7ABFF8D20FFF7A8FF142083
:10126000FFF7A5FFBDE81040AF20A0E710B504468A
:10127000B031C8B2FFF79BFF102040EA1410FFF70F
:1012800096FF04F00F00BDE8104040F001008EE72B
:1012900070B50646002505F1B000C0B2FFF787FF24
:1012A0000020FFF784FF1020FFF781FF0024304665
:1012B000FFF780FF641CE4B2802CF8D36D1CEDB204
:1012C000082DE8D370BD0020E2E710B58D20FFF7B0
:1012D0006EFF1420FFF76BFFBDE81040AF2066E7FC
:1012E00010B58D20FFF763FF1020FFF760FFBDE80A
:1012F0001040AE205BE72DE9F04704460F469146CB
:101300000026012B22D0022B24D1DFF848A14EE089
:10131000203800F0FF087E2C02D900247F1CFFB289
:1013200039462046FFF7A2FF00254B4908EB48004D
:1013300001EB400818F80500FFF73CFF6D1CEDB20B
:10134000062DF7D3A41DE4B2761CF6B219F80600F8
:101350000028DDD1BDE8F087203800F0FF08782CA8
:1013600002D900247F1CFFB239462046FFF77EFFDA
:10137000002505EB08101AF80000FFF71BFF6D1C95
:10138000EDB2082DF5D3781CC1B22046FFF76EFFF1
:10139000002505EB08105044007AFFF70BFF6D1C89
:1013A000EDB2082DF5D30834E4B2761CF6B219F884
:1013B00006000028D0D1CDE72DE9F04180460F4648
:1013C0000025540139464046FFF750FF234E305D5B
:1013D000FFF7F0FE641C6D1CEDB2102DF7D37F1CDF
:1013E000F9B24046FFF742FF0025305DFFF7E2FE0D
:1013F000641C6D1CEDB2102DF7D3BDE8F0812DE912
:10140000F0478246DDF820900E4690461F460025A4
:10141000780711E031465046FFF728FF544607E0B1
:1014200028466D1C19F80000FFF7C4FE641CE4B2E6
:101430004445F5D3761CF6B2BE42EBD38AE70000F2
:10144000000C014000540040801A06000100030017
:101450008200070000180008D815000828000020A6
:1014600010B56FF00400FEF783FF27482749006896
:10147000B0FBF1F02649C0B2087000EB4002C2EBAD
:10148000C0104FF6FF7202EAC000488010BD20492C
:10149000097848434FF0E021486100238B610869D7
:1014A00040F0010008610869C20701D0C003FAD505
:1014B000086920F0010008618B6170471449498870
:1014C00048434FF0E021486100238B61086940F0F8
:1014D000010008610869C20701D0C003FAD5086994
:1014E00020F0010008618B61704770B5054600244B
:1014F0004FF47A7604E03046FFF7E0FF641CE4B274
:10150000AC42F8D370BD00000000002000127A0049
:101510000802002008B501210420FFF774FB1E20FB
:10152000ADF8000001208DF8020048208DF803007E
:1015300069460248FEF799FF08BD00000008014017
:10154000064C074D06E0E06840F0010394E8070010
:1015500098471034AC42F6D3FEF7EEFDF01D0008BC
:10156000101E000870B58C1810F8015B15F0070309
:1015700001D110F8013B2A1106D110F8012B03E02C
:1015800010F8016B01F8016B5B1EF9D12B0705D434
:101590000023521E0DD401F8013BFAE710F8013B7D
:1015A000CB1A921C03E013F8015B01F8015B521E99
:1015B000F9D5A142D8D3002070BD02E008C8121F9F
:1015C00008C1002AFAD170477047002001E001C12C
:1015D000121F002AFBD1704700000000000000002D
:1015E000002F000000000700070000147F147F1484
:1015F00000242A7F2A12006264081323003649550A
:10160000225000000503000000001C2241000000E1
:1016100041221C000014083E08140008083E080877
:10162000000000A0600000080808080800006060D2
:101630000000002010080402003E5149453E000011
:10164000427F4000004261514946002141454B31F3
:10165000001814127F10002745454539003C4A49BF
:101660004930000171090503003649494936000631
:101670004949291E00003636000000005636000099
:101680000008142241000014141414140000412214
:10169000140800020151090600324959513E007CEC
:1016A0001211127C007F49494936003E41414122D6
:1016B000007F4141221C007F49494941007F0909BF
:1016C0000901003E4149497A007F0808087F00006F
:1016D000417F4100002040413F01007F081422412A
:1016E000007F40404040007F020C027F007F0408E2
:1016F000107F003E4141413E007F09090906003E3E
:101700004151215E007F0919294600464949493166
:101710000001017F0101003F4040403F001F204089
:10172000201F003F4038403F006314081463000747
:101730000870080700615149454300007F4141009E
:1017400000552A552A55000041417F00000402013E
:10175000020400404040404000000102040000201C
:1017600054545478007F484444380038444444205A
:1017700000384444487F00385454541800087E0907
:1017800001020018A4A4A47C007F080404780000CF
:10179000447D4000004080847D00007F102844008C
:1017A0000000417F4000007C04180478007C08049D
:1017B000047800384444443800FC242424180018D9
:1017C000242418FC007C08040408004854545420C5
:1017D00000043F444020003C4040207C001C20404E
:1017E000201C003C4030403C004428102844001C91
:1017F000A0A0A07C004464544C4414141414141489
:1018000000000000000000000000000000000000D8
:10181000000000F80000000000000033300000006D
:1018200000100C06100C0600000000000000000074
:1018300040C07840C0784000043F04043F040400E6
:10184000007088FC08300000001820FF211E0000F6
:10185000F008F000E018000000211C031E211E000B
:1018600000F00888700000001E2123241927211091
:1018700010160E0000000000000000000000000034
:10188000000000E0180402000000000718204000DB
:1018900000020418E00000000040201807000000CB
:1018A000404080F0804040000202010F010202002F
:1018B000000000F0000000000101011F0101010013
:1018C000000000000000000080B070000000000078
:1018D0000000000000000000000101010101010101
:1018E0000000000000000000003030000000000098
:1018F000000000008060180400601806010000006D
:1019000000E010080810E000000F102020100F0069
:10191000001010F8000000000020203F20200000F0
:101920000070080808887000003028242221300048
:1019300000300888884830000018202020110E0050
:101940000000C02010F8000000070424243F2400F9
:1019500000F80888880808000019212020110E00CE
:1019600000E0108888180000000F112020110E00E0
:1019700000380808C83808000000003F00000000D8
:101980000070880808887000001C222121221C0099
:1019900000E010080810E0000000312222110F00C2
:1019A000000000C0C0000000000000303000000057
:1019B00000000080000000000000806000000000C7
:1019C00000008040201008000001020408102000E0
:1019D000404040404040400004040404040404002B
:1019E00000081020408000000020100804020100C0
:1019F000007048080808F0000000003036010000C0
:101A0000C030C828E810E0000718272423140B0072
:101A10000000C038E0000000203C230202273820EC
:101A200008F8888888700000203F202020110E00D0
:101A3000C0300808080838000718202020100800C7
:101A400008F808080810E000203F202020100F00B0
:101A500008F88888E8081000203F2020232018007C
:101A600008F88888E8081000203F200003000000E4
:101A7000C03008080838000007182020221E020085
:101A800008F808000008F808203F210101213F2044
:101A9000000808F8080800000020203F202000006F
:101AA00000000808F8080800C08080807F0000005F
:101AB00008F888C028180800203F20012638200098
:101AC00008F8080000000000203F202020203000FF
:101AD00008F8F800F8F80800203F003F003F200019
:101AE00008F830C00008F808203F200007183F0021
:101AF000E01008080810E0000F10202020100F0050
:101B000008F808080808F000203F21010101000042
:101B1000E01008080810E0000F18242438504F0087
:101B200008F8888888887000203F2000030C302047
:101B300000708808080838000038202121221C0085
:101B4000180808F8080818000000203F20000000CE
:101B500008F808000008F808001F202020201F00B7
:101B60000878880000C83808000007380E01000017
:101B7000F80800F80008F800033C0700073C0300E1
:101B8000081868808068180820302C03032C302047
:101B90000838C800C83808000000203F20000000B6
:101BA00010080808C838080020382621202018000E
:101BB000000000FE020202000000007F40404000E2
:101BC000000C30C000000000000000010638C0001A
:101BD00000020202FE000000004040407F000000C2
:101BE00000000402020204000000000000000000E7
:101BF00000000000000000008080808080808080E5
:101C000000020204000000000000000000000000CC
:101C100000008080808000000019242222223F20C2
:101C200008F8008080000000003F112020110E0005
:101C30000000008080800000000E11202020110094
:101C4000000000808088F800000E112020103F2046
:101C50000000808080800000001F222222221300CA
:101C6000008080F0888888180020203F2020000015
:101C70000000808080808000006B949494936000CA
:101C800008F8008080800000203F210000203F20D5
:101C900000809898000000000020203F20200000D5
:101CA000000000809898000000C08080807F0000C5
:101CB00008F8000080808000203F24022D302000A2
:101CC000000808F8000000000020203F202000004D
:101CD0008080808080808000203F20003F20003F67
:101CE0008080008080800000203F210000203F2075
:101CF0000000808080800000001F202020201F0026
:101D0000808000808000000080FFA12020110E0054
:101D10000000008080808000000E112020A0FF8045
:101D2000808080008080800020203F2120000100F2
:101D30000000808080808000003324242424190047
:101D4000008080E0808000000000001F2020000054
:101D50008080000000808000001F202020103F2095
:101D6000808080000080808000010E300806010025
:101D700080800080008080800F300C030C300F00CA
:101D800000808000808080000020312E0E312000F5
:101D9000808080000080808080818E701806010025
:101DA00000808080808080000021302C2221300043
:101DB00000000000807C020200000000003F404064
:101DC00000000000FF00000000000000FF00000015
:101DD0000002027C800000000040403F0000000044
:101DE00000060101020204040000000000000000DF
:101DF000101E0008000000200C02000064150008FE
:101E0000A01F00080C02002004040000CA150008EE
:101E10001184A24A04680D0102030406070809029E
:101E200004060810691415404042CC400B40A09EA7
:101E30008282829EA02020100D3F908840432C106B
:101E40002846418080200C40504E4848FF48484872
:101E500040F842FF10083E0202FF12221E250F40EA
:101E6000807F3940280904F49494FF9494F47230EC
:101E70000F40201F20484442415F414244484028CF
:101E800009FC242424FC252624081204180E4030C2
:101E90008F80844C55252525554C80601116FC8477
:101EA0008484FC2A10011CFF10107E19091A3FA41B
:101EB0003A065F2114F80106300AF0121212F202FB
:101EC0000202FE2984161F1111111F392110101052
:101ED0008C4404E40495A64424148444940C180D02
:101EE00002027A414143427E42424243B211170408
:101EF00084E45C44C41B02F2E11AFE702C02017FF0
:101F0000601A08011C48884009200EC8B88FE8886C
:101F10008840300FC8082818180F08180808FF0450
:101F20008440300E010E3040A038088060F80780F1
:101F3000601C9E199F2A0182198B2C0202FF052129
:101F40001EFE20203F20E51EE4242223E22F180E4F
:101F50007F0101FF80601F8041261826414029D95A
:101F60002ED030FF30D009190F1D08040209631F5D
:101F7000080809020408113EE0F8FCFCFE0125FCFB
:101F8000FCF8E03E071F3F3F7F013D3F3F1F07201A
:101F90003B0C0E016A0C203B3070013A30200123CB
:0400000508000131BD
:00000001FF
